{
  "contractName": "MockSolHash",
  "abi": [
    {
      "constant": true,
      "inputs": [
        {
          "name": "clearText",
          "type": "bytes32"
        }
      ],
      "name": "solHash",
      "outputs": [
        {
          "name": "",
          "type": "bytes32"
        }
      ],
      "payable": false,
      "stateMutability": "pure",
      "type": "function"
    }
  ],
  "bytecode": "0x608060405234801561001057600080fd5b5060e18061001f6000396000f300608060405260043610603f576000357c0100000000000000000000000000000000000000000000000000000000900463ffffffff1680636a7c2036146044575b600080fd5b348015604f57600080fd5b5060706004803603810190808035600019169060200190929190505050608e565b60405180826000191660001916815260200191505060405180910390f35b600081604051808260001916600019168152602001915050604051809103902090509190505600a165627a7a723058207a1121b01391a87458eeca827e4e89d2d81545fbc3b7afb636dd08995842dc5b0029",
  "source": "pragma solidity ^0.4.23;\n\n\ncontract MockSolHash {\n    function solHash(bytes32 clearText) public pure returns (bytes32) {\n        return keccak256(clearText);\n    }\n}",
  "sourcePath": "/Users/fil.capiral/dev/github.com/atonomi/smart-contracts/contracts/mocks/MockSolHash.sol",
  "compiler": {
    "name": "solc",
    "version": "0.4.24+commit.e67f0147.Emscripten.clang"
  },
  "schemaVersion": "2.0.0",
  "updatedAt": "2018-07-13T19:02:41.038Z"
}