{
  "contractName": "MockContractReceiver",
  "abi": [
    {
      "anonymous": false,
      "inputs": [
        {
          "indexed": false,
          "name": "n",
          "type": "uint256"
        }
      ],
      "name": "TestLog",
      "type": "event"
    },
    {
      "constant": false,
      "inputs": [
        {
          "name": "n",
          "type": "uint256"
        }
      ],
      "name": "onTokenTransfer",
      "outputs": [
        {
          "name": "",
          "type": "bool"
        }
      ],
      "payable": false,
      "stateMutability": "nonpayable",
      "type": "function"
    },
    {
      "constant": false,
      "inputs": [
        {
          "name": "n",
          "type": "uint256"
        }
      ],
      "name": "onTokenApprove",
      "outputs": [
        {
          "name": "",
          "type": "bool"
        }
      ],
      "payable": false,
      "stateMutability": "nonpayable",
      "type": "function"
    }
  ],
  "bytecode": "0x608060405234801561001057600080fd5b5061018b806100206000396000f30060806040526004361061004c576000357c0100000000000000000000000000000000000000000000000000000000900463ffffffff168063a8ab15cd14610051578063e9b0b3e214610096575b600080fd5b34801561005d57600080fd5b5061007c600480360381019080803590602001909291905050506100db565b604051808215151515815260200191505060405180910390f35b3480156100a257600080fd5b506100c16004803603810190808035906020019092919050505061011d565b604051808215151515815260200191505060405180910390f35b60007fc9a2166775dcce465c3dc43d6ad4e991fef0c0cb017ad4533430a332a10276f9826040518082815260200191505060405180910390a160019050919050565b60007fc9a2166775dcce465c3dc43d6ad4e991fef0c0cb017ad4533430a332a10276f9826040518082815260200191505060405180910390a1600190509190505600a165627a7a7230582080d4e74dd40f09e4f62bcdb768acc9ab5c7f9ff2d570b126572f53640f4818d90029",
  "source": "pragma solidity ^0.4.23;\n\n\ncontract MockContractReceiver {\n    event TestLog(uint n);\n\n    function onTokenTransfer(uint n) public returns (bool) {\n        emit TestLog(n);\n        return true;\n    }\n\n    function onTokenApprove(uint n) public returns (bool) {\n        emit TestLog(n);\n        return true;\n    }\n}",
  "sourcePath": "/Users/fil.capiral/dev/github.com/filcap/atonomi-smart-contracts/contracts/mocks/MockContractReceiver.sol",
  "compiler": {
    "name": "solc",
    "version": "0.4.24+commit.e67f0147.Emscripten.clang"
  },
  "schemaVersion": "2.0.0",
  "updatedAt": "2018-06-01T21:12:27.540Z"
}