{
  "contractName": "NetworkSettings",
  "abi": [
    {
      "constant": true,
      "inputs": [],
      "name": "registrationFee",
      "outputs": [
        {
          "name": "",
          "type": "uint256"
        }
      ],
      "payable": false,
      "stateMutability": "view",
      "type": "function"
    },
    {
      "constant": true,
      "inputs": [],
      "name": "blockThreshold",
      "outputs": [
        {
          "name": "",
          "type": "uint256"
        }
      ],
      "payable": false,
      "stateMutability": "view",
      "type": "function"
    },
    {
      "constant": true,
      "inputs": [],
      "name": "activationFee",
      "outputs": [
        {
          "name": "",
          "type": "uint256"
        }
      ],
      "payable": false,
      "stateMutability": "view",
      "type": "function"
    },
    {
      "constant": true,
      "inputs": [],
      "name": "owner",
      "outputs": [
        {
          "name": "",
          "type": "address"
        }
      ],
      "payable": false,
      "stateMutability": "view",
      "type": "function"
    },
    {
      "constant": true,
      "inputs": [],
      "name": "defaultReputationReward",
      "outputs": [
        {
          "name": "",
          "type": "uint256"
        }
      ],
      "payable": false,
      "stateMutability": "view",
      "type": "function"
    },
    {
      "constant": true,
      "inputs": [],
      "name": "reputationIRNNodeShare",
      "outputs": [
        {
          "name": "",
          "type": "uint256"
        }
      ],
      "payable": false,
      "stateMutability": "view",
      "type": "function"
    },
    {
      "constant": false,
      "inputs": [
        {
          "name": "newOwner",
          "type": "address"
        }
      ],
      "name": "transferOwnership",
      "outputs": [],
      "payable": false,
      "stateMutability": "nonpayable",
      "type": "function"
    },
    {
      "inputs": [
        {
          "name": "_registrationFee",
          "type": "uint256"
        },
        {
          "name": "_activationFee",
          "type": "uint256"
        },
        {
          "name": "_defaultReputationReward",
          "type": "uint256"
        },
        {
          "name": "_reputationIRNNodeShare",
          "type": "uint256"
        },
        {
          "name": "_blockThreshold",
          "type": "uint256"
        }
      ],
      "payable": false,
      "stateMutability": "nonpayable",
      "type": "constructor"
    },
    {
      "anonymous": false,
      "inputs": [
        {
          "indexed": true,
          "name": "_sender",
          "type": "address"
        },
        {
          "indexed": false,
          "name": "_amount",
          "type": "uint256"
        }
      ],
      "name": "RegistrationFeeUpdated",
      "type": "event"
    },
    {
      "anonymous": false,
      "inputs": [
        {
          "indexed": true,
          "name": "_sender",
          "type": "address"
        },
        {
          "indexed": false,
          "name": "_amount",
          "type": "uint256"
        }
      ],
      "name": "ActivationFeeUpdated",
      "type": "event"
    },
    {
      "anonymous": false,
      "inputs": [
        {
          "indexed": true,
          "name": "_sender",
          "type": "address"
        },
        {
          "indexed": false,
          "name": "_amount",
          "type": "uint256"
        }
      ],
      "name": "DefaultReputationRewardUpdated",
      "type": "event"
    },
    {
      "anonymous": false,
      "inputs": [
        {
          "indexed": true,
          "name": "_sender",
          "type": "address"
        },
        {
          "indexed": false,
          "name": "_percentage",
          "type": "uint256"
        }
      ],
      "name": "ReputationIRNNodeShareUpdated",
      "type": "event"
    },
    {
      "anonymous": false,
      "inputs": [
        {
          "indexed": true,
          "name": "_sender",
          "type": "address"
        },
        {
          "indexed": false,
          "name": "_newBlockThreshold",
          "type": "uint256"
        }
      ],
      "name": "RewardBlockThresholdChanged",
      "type": "event"
    },
    {
      "anonymous": false,
      "inputs": [
        {
          "indexed": true,
          "name": "previousOwner",
          "type": "address"
        },
        {
          "indexed": true,
          "name": "newOwner",
          "type": "address"
        }
      ],
      "name": "OwnershipTransferred",
      "type": "event"
    },
    {
      "constant": false,
      "inputs": [
        {
          "name": "_registrationFee",
          "type": "uint256"
        }
      ],
      "name": "setRegistrationFee",
      "outputs": [
        {
          "name": "",
          "type": "bool"
        }
      ],
      "payable": false,
      "stateMutability": "nonpayable",
      "type": "function"
    },
    {
      "constant": false,
      "inputs": [
        {
          "name": "_activationFee",
          "type": "uint256"
        }
      ],
      "name": "setActivationFee",
      "outputs": [
        {
          "name": "",
          "type": "bool"
        }
      ],
      "payable": false,
      "stateMutability": "nonpayable",
      "type": "function"
    },
    {
      "constant": false,
      "inputs": [
        {
          "name": "_defaultReputationReward",
          "type": "uint256"
        }
      ],
      "name": "setDefaultReputationReward",
      "outputs": [
        {
          "name": "",
          "type": "bool"
        }
      ],
      "payable": false,
      "stateMutability": "nonpayable",
      "type": "function"
    },
    {
      "constant": false,
      "inputs": [
        {
          "name": "_reputationIRNNodeShare",
          "type": "uint256"
        }
      ],
      "name": "setReputationIRNNodeShare",
      "outputs": [
        {
          "name": "",
          "type": "bool"
        }
      ],
      "payable": false,
      "stateMutability": "nonpayable",
      "type": "function"
    },
    {
      "constant": false,
      "inputs": [
        {
          "name": "_newBlockThreshold",
          "type": "uint256"
        }
      ],
      "name": "setRewardBlockThreshold",
      "outputs": [
        {
          "name": "",
          "type": "bool"
        }
      ],
      "payable": false,
      "stateMutability": "nonpayable",
      "type": "function"
    }
  ],
  "bytecode": "0x608060405234801561001057600080fd5b5060405160a0806112a08339810180604052810190808051906020019092919080519060200190929190805190602001909291908051906020019092919080519060200190929190505050336000806101000a81548173ffffffffffffffffffffffffffffffffffffffff021916908373ffffffffffffffffffffffffffffffffffffffff160217905550600084111515610139576040517f08c379a00000000000000000000000000000000000000000000000000000000081526004018080602001828103825260258152602001807f61637469766174696f6e20666565206d7573742062652067726561746572207481526020017f68616e203000000000000000000000000000000000000000000000000000000081525060400191505060405180910390fd5b6000851115156101d7576040517f08c379a00000000000000000000000000000000000000000000000000000000081526004018080602001828103825260278152602001807f726567697374726174696f6e20666565206d757374206265206772656174657281526020017f207468616e20300000000000000000000000000000000000000000000000000081525060400191505060405180910390fd5b600083111515610275576040517f08c379a00000000000000000000000000000000000000000000000000000000081526004018080602001828103825260308152602001807f64656661756c742072657075746174696f6e20726577617264206d757374206281526020017f652067726561746572207468616e20300000000000000000000000000000000081525060400191505060405180910390fd5b600082111515610313576040517f08c379a00000000000000000000000000000000000000000000000000000000081526004018080602001828103825260228152602001807f6e6577207368617265206d757374206265206c6172676572207468616e207a6581526020017f726f00000000000000000000000000000000000000000000000000000000000081525060400191505060405180910390fd5b60648210151561038b576040517f08c379a000000000000000000000000000000000000000000000000000000000815260040180806020018281038252601f8152602001807f6e6577207368617265206d757374206265206c657373207468616e203130300081525060200191505060405180910390fd5b83600281905550846001819055508260038190555081600481905550806005819055505050505050610ede806103c26000396000f3006080604052600436106100ba576000357c0100000000000000000000000000000000000000000000000000000000900463ffffffff16806314c44e09146100bf5780634c41a6c7146100ea57806377d630ae146101155780638da5cb5b146101405780639790268b14610197578063a10a7782146101dc578063aaabdf1614610207578063c320c72714610232578063c354864714610277578063c8ee2da8146102bc578063e1dcafa314610301578063f2fde38b14610346575b600080fd5b3480156100cb57600080fd5b506100d4610389565b6040518082815260200191505060405180910390f35b3480156100f657600080fd5b506100ff61038f565b6040518082815260200191505060405180910390f35b34801561012157600080fd5b5061012a610395565b6040518082815260200191505060405180910390f35b34801561014c57600080fd5b5061015561039b565b604051808273ffffffffffffffffffffffffffffffffffffffff1673ffffffffffffffffffffffffffffffffffffffff16815260200191505060405180910390f35b3480156101a357600080fd5b506101c2600480360381019080803590602001909291905050506103c0565b604051808215151515815260200191505060405180910390f35b3480156101e857600080fd5b506101f16104f5565b6040518082815260200191505060405180910390f35b34801561021357600080fd5b5061021c6104fb565b6040518082815260200191505060405180910390f35b34801561023e57600080fd5b5061025d60048036038101908080359060200190929190505050610501565b604051808215151515815260200191505060405180910390f35b34801561028357600080fd5b506102a2600480360381019080803590602001909291905050506106fa565b604051808215151515815260200191505060405180910390f35b3480156102c857600080fd5b506102e7600480360381019080803590602001909291905050506108f3565b604051808215151515815260200191505060405180910390f35b34801561030d57600080fd5b5061032c60048036038101908080359060200190929190505050610b64565b604051808215151515815260200191505060405180910390f35b34801561035257600080fd5b50610387600480360381019080803573ffffffffffffffffffffffffffffffffffffffff169060200190929190505050610d5d565b005b60015481565b60055481565b60025481565b6000809054906101000a900473ffffffffffffffffffffffffffffffffffffffff1681565b60008060009054906101000a900473ffffffffffffffffffffffffffffffffffffffff1673ffffffffffffffffffffffffffffffffffffffff163373ffffffffffffffffffffffffffffffffffffffff1614151561041d57600080fd5b6005548214151515610497576040517f08c379a00000000000000000000000000000000000000000000000000000000081526004018080602001828103825260118152602001807f6d75737420626520646966666572656e7400000000000000000000000000000081525060200191505060405180910390fd5b816005819055503373ffffffffffffffffffffffffffffffffffffffff167fe9c082109c01e25425b476e083c690acecd623672e489c4e68e890872cfcf7c1836040518082815260200191505060405180910390a260019050919050565b60035481565b60045481565b60008060009054906101000a900473ffffffffffffffffffffffffffffffffffffffff1673ffffffffffffffffffffffffffffffffffffffff163373ffffffffffffffffffffffffffffffffffffffff1614151561055e57600080fd5b6000821115156105fc576040517f08c379a000000000000000000000000000000000000000000000000000000000815260040180806020018281038252602e8152602001807f6e657720726567697374726174696f6e20666565206d7573742062652067726581526020017f61746572207468616e207a65726f00000000000000000000000000000000000081525060400191505060405180910390fd5b600154821415151561069c576040517f08c379a00000000000000000000000000000000000000000000000000000000081526004018080602001828103825260268152602001807f6e657720726567697374726174696f6e20666565206d7573742062652064696681526020017f666572656e74000000000000000000000000000000000000000000000000000081525060400191505060405180910390fd5b816001819055503373ffffffffffffffffffffffffffffffffffffffff167fe6f922fdbe16d4eef86eb570ec4aba95a86ab92041f361511c6ae25984967c64836040518082815260200191505060405180910390a260019050919050565b60008060009054906101000a900473ffffffffffffffffffffffffffffffffffffffff1673ffffffffffffffffffffffffffffffffffffffff163373ffffffffffffffffffffffffffffffffffffffff1614151561075757600080fd5b6000821115156107f5576040517f08c379a000000000000000000000000000000000000000000000000000000000815260040180806020018281038252602c8152602001807f6e65772061637469766174696f6e20666565206d75737420626520677265617481526020017f6572207468616e207a65726f000000000000000000000000000000000000000081525060400191505060405180910390fd5b6002548214151515610895576040517f08c379a00000000000000000000000000000000000000000000000000000000081526004018080602001828103825260248152602001807f6e65772061637469766174696f6e20666565206d75737420626520646966666581526020017f72656e740000000000000000000000000000000000000000000000000000000081525060400191505060405180910390fd5b816002819055503373ffffffffffffffffffffffffffffffffffffffff167f0234940f43dc1529eab9d5a44bf26ce660a7ac8915fd003aeffd7da4ddd16c81836040518082815260200191505060405180910390a260019050919050565b60008060009054906101000a900473ffffffffffffffffffffffffffffffffffffffff1673ffffffffffffffffffffffffffffffffffffffff163373ffffffffffffffffffffffffffffffffffffffff1614151561095057600080fd5b6000821115156109ee576040517f08c379a00000000000000000000000000000000000000000000000000000000081526004018080602001828103825260228152602001807f6e6577207368617265206d757374206265206c6172676572207468616e207a6581526020017f726f00000000000000000000000000000000000000000000000000000000000081525060400191505060405180910390fd5b606482101515610a8c576040517f08c379a00000000000000000000000000000000000000000000000000000000081526004018080602001828103825260228152602001807f6e6577207368617265206d757374206265206c657373207468616e20746f203181526020017f303000000000000000000000000000000000000000000000000000000000000081525060400191505060405180910390fd5b8160045414151515610b06576040517f08c379a000000000000000000000000000000000000000000000000000000000815260040180806020018281038252601b8152602001807f6e6577207368617265206d75737420626520646966666572656e74000000000081525060200191505060405180910390fd5b816004819055503373ffffffffffffffffffffffffffffffffffffffff167f198c873bcde5a55b0d7230eef2c7a7f5a3108ef88ddc99fd4aef43a686712538836040518082815260200191505060405180910390a260019050919050565b60008060009054906101000a900473ffffffffffffffffffffffffffffffffffffffff1673ffffffffffffffffffffffffffffffffffffffff163373ffffffffffffffffffffffffffffffffffffffff16141515610bc157600080fd5b600082111515610c5f576040517f08c379a000000000000000000000000000000000000000000000000000000000815260040180806020018281038252602f8152602001807f6e65772072657075746174696f6e20726577617264206d75737420626520677281526020017f6561746572207468616e207a65726f000000000000000000000000000000000081525060400191505060405180910390fd5b6003548214151515610cff576040517f08c379a00000000000000000000000000000000000000000000000000000000081526004018080602001828103825260278152602001807f6e65772072657075746174696f6e20726577617264206d75737420626520646981526020017f66666572656e740000000000000000000000000000000000000000000000000081525060400191505060405180910390fd5b816003819055503373ffffffffffffffffffffffffffffffffffffffff167f473e273824cdb20d698f6ab9016a329205f6f3d1cd27311093762eea782b46b1836040518082815260200191505060405180910390a260019050919050565b6000809054906101000a900473ffffffffffffffffffffffffffffffffffffffff1673ffffffffffffffffffffffffffffffffffffffff163373ffffffffffffffffffffffffffffffffffffffff16141515610db857600080fd5b600073ffffffffffffffffffffffffffffffffffffffff168173ffffffffffffffffffffffffffffffffffffffff1614151515610df457600080fd5b8073ffffffffffffffffffffffffffffffffffffffff166000809054906101000a900473ffffffffffffffffffffffffffffffffffffffff1673ffffffffffffffffffffffffffffffffffffffff167f8be0079c531659141344cd1fd0a4f28419497f9722a3daafe3b4186f6b6457e060405160405180910390a3806000806101000a81548173ffffffffffffffffffffffffffffffffffffffff021916908373ffffffffffffffffffffffffffffffffffffffff160217905550505600a165627a7a72305820adb09245b9a27ad037f3bf97e4b03a02e16606021aa10bc1c76d4f568ca595ae0029",
  "source": "pragma solidity ^0.4.23; // solhint-disable-line\n\nimport \"zeppelin-solidity/contracts/ownership/Ownable.sol\";\n\n\n/// @title Atonomi Network Settings\n/// @notice This contract controls all owner configurable variables in the network\ncontract NetworkSettings is Ownable {\n    /// @title Registration Fee\n    /// @notice Manufacturer pays token to register a device\n    /// @notice Manufacturer will recieve a share in any reputation updates for a device\n    uint256 public registrationFee;\n\n    /// @title Activiation Fee\n    /// @notice Manufacturer or Device Owner pays token to activate device\n    uint256 public activationFee;\n\n    /// @title Default Reputation Reward\n    /// @notice The default reputation reward set for new manufacturers\n    uint256 public defaultReputationReward;\n\n    /// @title Reputation Share for IRN Nodes\n    /// @notice percentage that the irn node or auditor receives (remaining goes to manufacturer)\n    uint256 public reputationIRNNodeShare;\n\n    /// @title Block threshold\n    /// @notice the number of blocks that need to pass between reputation updates to gain the full reward\n    uint256 public blockThreshold;\n\n    /// @notice emitted everytime the registration fee changes\n    /// @param _sender ethereum account of participant that made the change\n    /// @param _amount new fee value in ATMI tokens\n    event RegistrationFeeUpdated(\n        address indexed _sender,\n        uint256 _amount\n    );\n\n    /// @notice emitted everytime the activation fee changes\n    /// @param _sender ethereum account of participant that made the change\n    /// @param _amount new fee value in ATMI tokens\n    event ActivationFeeUpdated(\n        address indexed _sender,\n        uint256 _amount\n    );\n\n    /// @notice emitted everytime the default reputation reward changes\n    /// @param _sender ethereum account of participant that made the change\n    /// @param _amount new fee value in ATMI tokens\n    event DefaultReputationRewardUpdated(\n        address indexed _sender,\n        uint256 _amount\n    );\n\n    /// @notice emitted everytime owner changes the contributation share for reputation authors\n    /// @param _sender ethereum account of participant that made the change\n    /// @param _percentage new percentage value\n    event ReputationIRNNodeShareUpdated(\n        address indexed _sender,\n        uint256 _percentage\n    );\n\n    /// @notice emitted everytime the block threshold is changed\n    /// @param _sender ethereum account who made the change\n    /// @param _newBlockThreshold new value for all token pools\n    event RewardBlockThresholdChanged(\n        address indexed _sender,\n        uint256 _newBlockThreshold\n    );\n\n    /// @notice Constructor for Atonomi Reputation contract\n    /// @param _registrationFee initial registration fee on the network\n    /// @param _activationFee initial activation fee on the network\n    /// @param _defaultReputationReward initial reputation reward on the network\n    /// @param _reputationIRNNodeShare share that the reputation author recieves (remaining goes to manufacturer)\n    /// @param _blockThreshold the number of blocks that need to pass to receive the full reward\n    constructor(\n        uint256 _registrationFee,\n        uint256 _activationFee,\n        uint256 _defaultReputationReward,\n        uint256 _reputationIRNNodeShare,\n        uint256 _blockThreshold) public {\n        require(_activationFee > 0, \"activation fee must be greater than 0\");\n        require(_registrationFee > 0, \"registration fee must be greater than 0\");\n        require(_defaultReputationReward > 0, \"default reputation reward must be greater than 0\");\n        require(_reputationIRNNodeShare > 0, \"new share must be larger than zero\");\n        require(_reputationIRNNodeShare < 100, \"new share must be less than 100\");\n\n        activationFee = _activationFee;\n        registrationFee = _registrationFee;\n        defaultReputationReward = _defaultReputationReward;\n        reputationIRNNodeShare = _reputationIRNNodeShare;\n        blockThreshold = _blockThreshold;\n    }\n\n    /// @notice sets the global registration fee\n    /// @param _registrationFee new fee for registrations in ATMI tokens\n    /// @return true if successful, otherwise false\n    function setRegistrationFee(uint256 _registrationFee) public onlyOwner returns (bool) {\n        require(_registrationFee > 0, \"new registration fee must be greater than zero\");\n        require(_registrationFee != registrationFee, \"new registration fee must be different\");\n        registrationFee = _registrationFee;\n        emit RegistrationFeeUpdated(msg.sender, _registrationFee);\n        return true;\n    }\n\n    /// @notice sets the global activation fee\n    /// @param _activationFee new fee for activations in ATMI tokens\n    /// @return true if successful, otherwise false\n    function setActivationFee(uint256 _activationFee) public onlyOwner returns (bool) {\n        require(_activationFee > 0, \"new activation fee must be greater than zero\");\n        require(_activationFee != activationFee, \"new activation fee must be different\");\n        activationFee = _activationFee;\n        emit ActivationFeeUpdated(msg.sender, _activationFee);\n        return true;\n    }\n\n    /// @notice sets the default reputation reward for new manufacturers\n    /// @param _defaultReputationReward new reward for reputation score changes in ATMI tokens\n    /// @return true if successful, otherwise false\n    function setDefaultReputationReward(uint256 _defaultReputationReward) public onlyOwner returns (bool) {\n        require(_defaultReputationReward > 0, \"new reputation reward must be greater than zero\");\n        require(_defaultReputationReward != defaultReputationReward, \"new reputation reward must be different\");\n        defaultReputationReward = _defaultReputationReward;\n        emit DefaultReputationRewardUpdated(msg.sender, _defaultReputationReward);\n        return true;\n    }\n\n    /// @notice sets the global reputation reward share allotted to the authors and manufacturers\n    /// @param _reputationIRNNodeShare new percentage of the reputation reward allotted to author\n    /// @return true if successful, otherwise false\n    function setReputationIRNNodeShare(uint256 _reputationIRNNodeShare) public onlyOwner returns (bool) {\n        require(_reputationIRNNodeShare > 0, \"new share must be larger than zero\");\n        require(_reputationIRNNodeShare < 100, \"new share must be less than to 100\");\n        require(reputationIRNNodeShare != _reputationIRNNodeShare, \"new share must be different\");\n        reputationIRNNodeShare = _reputationIRNNodeShare;\n        emit ReputationIRNNodeShareUpdated(msg.sender, _reputationIRNNodeShare);\n        return true;\n    }\n\n    /// @notice sets the global block threshold for rewards\n    /// @param _newBlockThreshold new value for all token pools\n    /// @return true if successful, otherwise false\n    function setRewardBlockThreshold(uint _newBlockThreshold) public onlyOwner returns (bool) {\n        require(_newBlockThreshold != blockThreshold, \"must be different\");\n        blockThreshold = _newBlockThreshold;\n        emit RewardBlockThresholdChanged(msg.sender, _newBlockThreshold);\n        return true;\n    }\n}\n",
  "sourcePath": "/Users/fil.capiral/dev/github.com/filcap/atonomi-smart-contracts/contracts/NetworkSettings.sol",
  "compiler": {
    "name": "solc",
    "version": "0.4.24+commit.e67f0147.Emscripten.clang"
  },
  "schemaVersion": "2.0.0",
  "updatedAt": "2018-06-01T21:12:27.504Z"
}