{
  "contractName": "SafeMathMock",
  "abi": [
    {
      "constant": true,
      "inputs": [
        {
          "name": "a",
          "type": "uint256"
        },
        {
          "name": "b",
          "type": "uint256"
        }
      ],
      "name": "mul",
      "outputs": [
        {
          "name": "",
          "type": "uint256"
        }
      ],
      "payable": false,
      "stateMutability": "pure",
      "type": "function"
    },
    {
      "constant": true,
      "inputs": [
        {
          "name": "a",
          "type": "uint256"
        },
        {
          "name": "b",
          "type": "uint256"
        }
      ],
      "name": "div",
      "outputs": [
        {
          "name": "",
          "type": "uint256"
        }
      ],
      "payable": false,
      "stateMutability": "pure",
      "type": "function"
    },
    {
      "constant": true,
      "inputs": [
        {
          "name": "a",
          "type": "uint256"
        },
        {
          "name": "b",
          "type": "uint256"
        }
      ],
      "name": "sub",
      "outputs": [
        {
          "name": "",
          "type": "uint256"
        }
      ],
      "payable": false,
      "stateMutability": "pure",
      "type": "function"
    },
    {
      "constant": true,
      "inputs": [
        {
          "name": "a",
          "type": "uint256"
        },
        {
          "name": "b",
          "type": "uint256"
        }
      ],
      "name": "add",
      "outputs": [
        {
          "name": "",
          "type": "uint256"
        }
      ],
      "payable": false,
      "stateMutability": "pure",
      "type": "function"
    }
  ],
  "bytecode": "0x608060405234801561001057600080fd5b506102b6806100206000396000f300608060405260043610610062576000357c0100000000000000000000000000000000000000000000000000000000900463ffffffff168063771602f714610067578063a391c15b146100b2578063b67d77c5146100fd578063c8a4ac9c14610148575b600080fd5b34801561007357600080fd5b5061009c6004803603810190808035906020019092919080359060200190929190505050610193565b6040518082815260200191505060405180910390f35b3480156100be57600080fd5b506100e760048036038101908080359060200190929190803590602001909291905050506101b0565b6040518082815260200191505060405180910390f35b34801561010957600080fd5b5061013260048036038101908080359060200190929190803590602001909291905050506101cd565b6040518082815260200191505060405180910390f35b34801561015457600080fd5b5061017d60048036038101908080359060200190929190803590602001909291905050506101ea565b6040518082815260200191505060405180910390f35b60006101a8828461020790919063ffffffff16565b905092915050565b60006101c5828461022390919063ffffffff16565b905092915050565b60006101e2828461023990919063ffffffff16565b905092915050565b60006101ff828461025290919063ffffffff16565b905092915050565b6000818301905082811015151561021a57fe5b80905092915050565b6000818381151561023057fe5b04905092915050565b600082821115151561024757fe5b818303905092915050565b6000808314156102655760009050610284565b818302905081838281151561027657fe5b0414151561028057fe5b8090505b929150505600a165627a7a72305820d52c454a5ee577c6b2faaefeafac01845a9d5407ba5b7b6c4582d21259c128660029",
  "source": "pragma solidity ^0.4.23;\n\n\nimport \"../Atonomi.sol\";\n\ncontract SafeMathMock {\n    using SafeMath for uint256;\n\n    function mul(uint256 a, uint256 b) public pure returns (uint256) {\n        return a.mul(b);\n    }\n\n    function div(uint256 a, uint256 b) public pure returns (uint256) {\n        return a.div(b);\n    }\n\n    function sub(uint256 a, uint256 b) public pure returns (uint256) {\n        return a.sub(b);\n    }\n\n    function add(uint256 a, uint256 b) public pure returns (uint256) {\n        return a.add(b);\n    }\n}",
  "sourcePath": "/Users/fil.capiral/dev/github.com/atonomi/smart-contracts/contracts/mocks/MockSafeMath.sol",
  "compiler": {
    "name": "solc",
    "version": "0.4.23+commit.124ca40d.Emscripten.clang"
  },
  "schemaVersion": "2.0.0",
  "updatedAt": "2018-05-30T16:40:14.656Z"
}