{
  "contractName": "SafeMathLib",
  "abi": [
    {
      "constant": false,
      "inputs": [
        {
          "name": "a",
          "type": "uint256"
        },
        {
          "name": "b",
          "type": "uint256"
        }
      ],
      "name": "times",
      "outputs": [
        {
          "name": "",
          "type": "uint256"
        }
      ],
      "payable": false,
      "stateMutability": "nonpayable",
      "type": "function"
    },
    {
      "constant": false,
      "inputs": [
        {
          "name": "a",
          "type": "uint256"
        },
        {
          "name": "b",
          "type": "uint256"
        }
      ],
      "name": "minus",
      "outputs": [
        {
          "name": "",
          "type": "uint256"
        }
      ],
      "payable": false,
      "stateMutability": "nonpayable",
      "type": "function"
    },
    {
      "constant": false,
      "inputs": [
        {
          "name": "a",
          "type": "uint256"
        },
        {
          "name": "b",
          "type": "uint256"
        }
      ],
      "name": "plus",
      "outputs": [
        {
          "name": "",
          "type": "uint256"
        }
      ],
      "payable": false,
      "stateMutability": "nonpayable",
      "type": "function"
    }
  ],
  "bytecode": "0x6101ea610030600b82828239805160001a6073146000811461002057610022565bfe5b5030600052607381538281f300730000000000000000000000000000000000000000301460806040526004361061006e576000357c0100000000000000000000000000000000000000000000000000000000900463ffffffff1680631d3b9edf1461007357806366098d4f146100be578063f4f3bdc114610109575b600080fd5b81801561007f57600080fd5b506100a86004803603810190808035906020019092919080359060200190929190505050610154565b6040518082815260200191505060405180910390f35b8180156100ca57600080fd5b506100f36004803603810190808035906020019092919080359060200190929190505050610187565b6040518082815260200191505060405180910390f35b81801561011557600080fd5b5061013e60048036038101908080359060200190929190803590602001909291905050506101a5565b6040518082815260200191505060405180910390f35b60008082840290506000841480610175575082848281151561017257fe5b04145b151561017d57fe5b8091505092915050565b600080828401905083811015151561019b57fe5b8091505092915050565b60008282111515156101b357fe5b8183039050929150505600a165627a7a723058202b7bc94ff71e3d2216ca429e57f54c7ea4d29fa680bedfe52bdfb7f656ee63640029",
  "source": "/**\n * This smart contract code is Copyright 2017 TokenMarket Ltd. For more information see https://tokenmarket.net\n *\n * Licensed under the Apache License, version 2.0: https://github.com/TokenMarketNet/ico/blob/master/LICENSE.txt\n */\n\n\n/**\n * Safe unsigned safe math.\n *\n * https://blog.aragon.one/library-driven-development-in-solidity-2bebcaf88736#.750gwtwli\n *\n * Originally from https://raw.githubusercontent.com/AragonOne/zeppelin-solidity/master/contracts/SafeMathLib.sol\n *\n * Maintained here until merged to mainline zeppelin-solidity.\n *\n */\nlibrary SafeMathLib {\n\n  function times(uint a, uint b) returns (uint) {\n    uint c = a * b;\n    assert(a == 0 || c / a == b);\n    return c;\n  }\n\n  function minus(uint a, uint b) returns (uint) {\n    assert(b <= a);\n    return a - b;\n  }\n\n  function plus(uint a, uint b) returns (uint) {\n    uint c = a + b;\n    assert(c>=a);\n    return c;\n  }\n\n}\n",
  "sourcePath": "/Users/fil.capiral/dev/github.com/atonomi/smart-contracts/contracts/tokenmarket/SafeMathLib.sol",
  "compiler": {
    "name": "solc",
    "version": "0.4.24+commit.e67f0147.Emscripten.clang"
  },
  "schemaVersion": "2.0.0",
  "updatedAt": "2018-07-13T19:02:41.385Z"
}