{
  "contractName": "Atonomi",
  "abi": [
    {
      "constant": true,
      "inputs": [
        {
          "name": "",
          "type": "address"
        }
      ],
      "name": "rewards",
      "outputs": [
        {
          "name": "",
          "type": "uint256"
        }
      ],
      "payable": false,
      "stateMutability": "view",
      "type": "function"
    },
    {
      "constant": true,
      "inputs": [
        {
          "name": "",
          "type": "bytes32"
        }
      ],
      "name": "manufacturerRewards",
      "outputs": [
        {
          "name": "",
          "type": "address"
        }
      ],
      "payable": false,
      "stateMutability": "view",
      "type": "function"
    },
    {
      "constant": true,
      "inputs": [],
      "name": "registrationFee",
      "outputs": [
        {
          "name": "",
          "type": "uint256"
        }
      ],
      "payable": false,
      "stateMutability": "view",
      "type": "function"
    },
    {
      "constant": false,
      "inputs": [],
      "name": "unpause",
      "outputs": [],
      "payable": false,
      "stateMutability": "nonpayable",
      "type": "function"
    },
    {
      "constant": true,
      "inputs": [],
      "name": "blockThreshold",
      "outputs": [
        {
          "name": "",
          "type": "uint256"
        }
      ],
      "payable": false,
      "stateMutability": "view",
      "type": "function"
    },
    {
      "constant": true,
      "inputs": [],
      "name": "paused",
      "outputs": [
        {
          "name": "",
          "type": "bool"
        }
      ],
      "payable": false,
      "stateMutability": "view",
      "type": "function"
    },
    {
      "constant": true,
      "inputs": [],
      "name": "activationFee",
      "outputs": [
        {
          "name": "",
          "type": "uint256"
        }
      ],
      "payable": false,
      "stateMutability": "view",
      "type": "function"
    },
    {
      "constant": false,
      "inputs": [],
      "name": "pause",
      "outputs": [],
      "payable": false,
      "stateMutability": "nonpayable",
      "type": "function"
    },
    {
      "constant": true,
      "inputs": [],
      "name": "owner",
      "outputs": [
        {
          "name": "",
          "type": "address"
        }
      ],
      "payable": false,
      "stateMutability": "view",
      "type": "function"
    },
    {
      "constant": true,
      "inputs": [],
      "name": "defaultReputationReward",
      "outputs": [
        {
          "name": "",
          "type": "uint256"
        }
      ],
      "payable": false,
      "stateMutability": "view",
      "type": "function"
    },
    {
      "constant": true,
      "inputs": [
        {
          "name": "",
          "type": "address"
        }
      ],
      "name": "pools",
      "outputs": [
        {
          "name": "balance",
          "type": "uint256"
        },
        {
          "name": "rewardAmount",
          "type": "uint256"
        }
      ],
      "payable": false,
      "stateMutability": "view",
      "type": "function"
    },
    {
      "constant": true,
      "inputs": [],
      "name": "reputationIRNNodeShare",
      "outputs": [
        {
          "name": "",
          "type": "uint256"
        }
      ],
      "payable": false,
      "stateMutability": "view",
      "type": "function"
    },
    {
      "constant": true,
      "inputs": [
        {
          "name": "",
          "type": "address"
        }
      ],
      "name": "network",
      "outputs": [
        {
          "name": "isIRNAdmin",
          "type": "bool"
        },
        {
          "name": "isManufacturer",
          "type": "bool"
        },
        {
          "name": "isIRNNode",
          "type": "bool"
        },
        {
          "name": "memberId",
          "type": "bytes32"
        }
      ],
      "payable": false,
      "stateMutability": "view",
      "type": "function"
    },
    {
      "constant": true,
      "inputs": [
        {
          "name": "",
          "type": "bytes32"
        }
      ],
      "name": "devices",
      "outputs": [
        {
          "name": "manufacturerId",
          "type": "bytes32"
        },
        {
          "name": "deviceType",
          "type": "bytes32"
        },
        {
          "name": "registered",
          "type": "bool"
        },
        {
          "name": "activated",
          "type": "bool"
        },
        {
          "name": "reputationScore",
          "type": "bytes32"
        },
        {
          "name": "devicePublicKey",
          "type": "bytes32"
        }
      ],
      "payable": false,
      "stateMutability": "view",
      "type": "function"
    },
    {
      "constant": false,
      "inputs": [
        {
          "name": "tokens",
          "type": "address[]"
        }
      ],
      "name": "destroy",
      "outputs": [],
      "payable": false,
      "stateMutability": "nonpayable",
      "type": "function"
    },
    {
      "constant": false,
      "inputs": [
        {
          "name": "newOwner",
          "type": "address"
        }
      ],
      "name": "transferOwnership",
      "outputs": [],
      "payable": false,
      "stateMutability": "nonpayable",
      "type": "function"
    },
    {
      "constant": true,
      "inputs": [],
      "name": "token",
      "outputs": [
        {
          "name": "",
          "type": "address"
        }
      ],
      "payable": false,
      "stateMutability": "view",
      "type": "function"
    },
    {
      "constant": true,
      "inputs": [
        {
          "name": "",
          "type": "address"
        },
        {
          "name": "",
          "type": "bytes32"
        }
      ],
      "name": "authorWrites",
      "outputs": [
        {
          "name": "",
          "type": "uint256"
        }
      ],
      "payable": false,
      "stateMutability": "view",
      "type": "function"
    },
    {
      "inputs": [
        {
          "name": "_token",
          "type": "address"
        },
        {
          "name": "_registrationFee",
          "type": "uint256"
        },
        {
          "name": "_activationFee",
          "type": "uint256"
        },
        {
          "name": "_defaultReputationReward",
          "type": "uint256"
        },
        {
          "name": "_reputationIRNNodeShare",
          "type": "uint256"
        },
        {
          "name": "_blockThreshold",
          "type": "uint256"
        }
      ],
      "payable": false,
      "stateMutability": "nonpayable",
      "type": "constructor"
    },
    {
      "anonymous": false,
      "inputs": [
        {
          "indexed": true,
          "name": "_sender",
          "type": "address"
        },
        {
          "indexed": false,
          "name": "_fee",
          "type": "uint256"
        },
        {
          "indexed": true,
          "name": "_deviceHashKey",
          "type": "bytes32"
        },
        {
          "indexed": true,
          "name": "_manufacturerId",
          "type": "bytes32"
        },
        {
          "indexed": false,
          "name": "_deviceType",
          "type": "bytes32"
        }
      ],
      "name": "DeviceRegistered",
      "type": "event"
    },
    {
      "anonymous": false,
      "inputs": [
        {
          "indexed": true,
          "name": "_sender",
          "type": "address"
        },
        {
          "indexed": false,
          "name": "_fee",
          "type": "uint256"
        },
        {
          "indexed": true,
          "name": "_deviceId",
          "type": "bytes32"
        },
        {
          "indexed": true,
          "name": "_manufacturerId",
          "type": "bytes32"
        },
        {
          "indexed": false,
          "name": "_deviceType",
          "type": "bytes32"
        }
      ],
      "name": "DeviceActivated",
      "type": "event"
    },
    {
      "anonymous": false,
      "inputs": [
        {
          "indexed": true,
          "name": "_deviceId",
          "type": "bytes32"
        },
        {
          "indexed": false,
          "name": "_deviceType",
          "type": "bytes32"
        },
        {
          "indexed": false,
          "name": "_newScore",
          "type": "bytes32"
        },
        {
          "indexed": true,
          "name": "_irnNode",
          "type": "address"
        },
        {
          "indexed": false,
          "name": "_irnReward",
          "type": "uint256"
        },
        {
          "indexed": true,
          "name": "_manufacturerWallet",
          "type": "address"
        },
        {
          "indexed": false,
          "name": "_manufacturerReward",
          "type": "uint256"
        }
      ],
      "name": "ReputationScoreUpdated",
      "type": "event"
    },
    {
      "anonymous": false,
      "inputs": [
        {
          "indexed": true,
          "name": "_sender",
          "type": "address"
        },
        {
          "indexed": true,
          "name": "_member",
          "type": "address"
        },
        {
          "indexed": true,
          "name": "_memberId",
          "type": "bytes32"
        }
      ],
      "name": "NetworkMemberAdded",
      "type": "event"
    },
    {
      "anonymous": false,
      "inputs": [
        {
          "indexed": true,
          "name": "_sender",
          "type": "address"
        },
        {
          "indexed": true,
          "name": "_member",
          "type": "address"
        },
        {
          "indexed": true,
          "name": "_memberId",
          "type": "bytes32"
        }
      ],
      "name": "NetworkMemberRemoved",
      "type": "event"
    },
    {
      "anonymous": false,
      "inputs": [
        {
          "indexed": true,
          "name": "_sender",
          "type": "address"
        },
        {
          "indexed": false,
          "name": "_amount",
          "type": "uint256"
        }
      ],
      "name": "RegistrationFeeUpdated",
      "type": "event"
    },
    {
      "anonymous": false,
      "inputs": [
        {
          "indexed": true,
          "name": "_sender",
          "type": "address"
        },
        {
          "indexed": false,
          "name": "_amount",
          "type": "uint256"
        }
      ],
      "name": "ActivationFeeUpdated",
      "type": "event"
    },
    {
      "anonymous": false,
      "inputs": [
        {
          "indexed": true,
          "name": "_sender",
          "type": "address"
        },
        {
          "indexed": false,
          "name": "_amount",
          "type": "uint256"
        }
      ],
      "name": "DefaultReputationRewardUpdated",
      "type": "event"
    },
    {
      "anonymous": false,
      "inputs": [
        {
          "indexed": true,
          "name": "_sender",
          "type": "address"
        },
        {
          "indexed": false,
          "name": "_percentage",
          "type": "uint256"
        }
      ],
      "name": "ReputationIRNNodeShareUpdated",
      "type": "event"
    },
    {
      "anonymous": false,
      "inputs": [
        {
          "indexed": true,
          "name": "_old",
          "type": "address"
        },
        {
          "indexed": true,
          "name": "_new",
          "type": "address"
        },
        {
          "indexed": true,
          "name": "_manufacturerId",
          "type": "bytes32"
        }
      ],
      "name": "ManufacturerRewardWalletChanged",
      "type": "event"
    },
    {
      "anonymous": false,
      "inputs": [
        {
          "indexed": true,
          "name": "_sender",
          "type": "address"
        },
        {
          "indexed": false,
          "name": "_newReward",
          "type": "uint256"
        }
      ],
      "name": "TokenPoolRewardUpdated",
      "type": "event"
    },
    {
      "anonymous": false,
      "inputs": [
        {
          "indexed": true,
          "name": "_sender",
          "type": "address"
        },
        {
          "indexed": false,
          "name": "_newBlockThreshold",
          "type": "uint256"
        }
      ],
      "name": "RewardBlockThresholdChanged",
      "type": "event"
    },
    {
      "anonymous": false,
      "inputs": [
        {
          "indexed": true,
          "name": "_sender",
          "type": "address"
        },
        {
          "indexed": true,
          "name": "_manufacturerId",
          "type": "bytes32"
        },
        {
          "indexed": true,
          "name": "_manufacturer",
          "type": "address"
        },
        {
          "indexed": false,
          "name": "_amount",
          "type": "uint256"
        }
      ],
      "name": "TokensDeposited",
      "type": "event"
    },
    {
      "anonymous": false,
      "inputs": [
        {
          "indexed": true,
          "name": "_sender",
          "type": "address"
        },
        {
          "indexed": false,
          "name": "_amount",
          "type": "uint256"
        }
      ],
      "name": "TokensWithdrawn",
      "type": "event"
    },
    {
      "anonymous": false,
      "inputs": [],
      "name": "Pause",
      "type": "event"
    },
    {
      "anonymous": false,
      "inputs": [],
      "name": "Unpause",
      "type": "event"
    },
    {
      "anonymous": false,
      "inputs": [
        {
          "indexed": true,
          "name": "previousOwner",
          "type": "address"
        },
        {
          "indexed": true,
          "name": "newOwner",
          "type": "address"
        }
      ],
      "name": "OwnershipTransferred",
      "type": "event"
    },
    {
      "constant": false,
      "inputs": [
        {
          "name": "_registrationFee",
          "type": "uint256"
        }
      ],
      "name": "setRegistrationFee",
      "outputs": [
        {
          "name": "",
          "type": "bool"
        }
      ],
      "payable": false,
      "stateMutability": "nonpayable",
      "type": "function"
    },
    {
      "constant": false,
      "inputs": [
        {
          "name": "_activationFee",
          "type": "uint256"
        }
      ],
      "name": "setActivationFee",
      "outputs": [
        {
          "name": "",
          "type": "bool"
        }
      ],
      "payable": false,
      "stateMutability": "nonpayable",
      "type": "function"
    },
    {
      "constant": false,
      "inputs": [
        {
          "name": "_defaultReputationReward",
          "type": "uint256"
        }
      ],
      "name": "setDefaultReputationReward",
      "outputs": [
        {
          "name": "",
          "type": "bool"
        }
      ],
      "payable": false,
      "stateMutability": "nonpayable",
      "type": "function"
    },
    {
      "constant": false,
      "inputs": [
        {
          "name": "_reputationIRNNodeShare",
          "type": "uint256"
        }
      ],
      "name": "setReputationIRNNodeShare",
      "outputs": [
        {
          "name": "",
          "type": "bool"
        }
      ],
      "payable": false,
      "stateMutability": "nonpayable",
      "type": "function"
    },
    {
      "constant": false,
      "inputs": [
        {
          "name": "_newBlockThreshold",
          "type": "uint256"
        }
      ],
      "name": "setRewardBlockThreshold",
      "outputs": [
        {
          "name": "",
          "type": "bool"
        }
      ],
      "payable": false,
      "stateMutability": "nonpayable",
      "type": "function"
    },
    {
      "constant": false,
      "inputs": [
        {
          "name": "_deviceIdHash",
          "type": "bytes32"
        },
        {
          "name": "_deviceType",
          "type": "bytes32"
        },
        {
          "name": "_devicePublicKey",
          "type": "bytes32"
        }
      ],
      "name": "registerDevice",
      "outputs": [
        {
          "name": "",
          "type": "bool"
        }
      ],
      "payable": false,
      "stateMutability": "nonpayable",
      "type": "function"
    },
    {
      "constant": false,
      "inputs": [
        {
          "name": "_deviceId",
          "type": "bytes32"
        }
      ],
      "name": "activateDevice",
      "outputs": [
        {
          "name": "",
          "type": "bool"
        }
      ],
      "payable": false,
      "stateMutability": "nonpayable",
      "type": "function"
    },
    {
      "constant": false,
      "inputs": [
        {
          "name": "_deviceId",
          "type": "bytes32"
        },
        {
          "name": "_deviceType",
          "type": "bytes32"
        },
        {
          "name": "_devicePublicKey",
          "type": "bytes32"
        }
      ],
      "name": "registerAndActivateDevice",
      "outputs": [
        {
          "name": "",
          "type": "bool"
        }
      ],
      "payable": false,
      "stateMutability": "nonpayable",
      "type": "function"
    },
    {
      "constant": false,
      "inputs": [
        {
          "name": "_deviceId",
          "type": "bytes32"
        },
        {
          "name": "_reputationScore",
          "type": "bytes32"
        }
      ],
      "name": "updateReputationScore",
      "outputs": [
        {
          "name": "",
          "type": "bool"
        }
      ],
      "payable": false,
      "stateMutability": "nonpayable",
      "type": "function"
    },
    {
      "constant": true,
      "inputs": [
        {
          "name": "author",
          "type": "address"
        },
        {
          "name": "manufacturer",
          "type": "address"
        },
        {
          "name": "deviceId",
          "type": "bytes32"
        }
      ],
      "name": "getReputationRewards",
      "outputs": [
        {
          "name": "irnReward",
          "type": "uint256"
        },
        {
          "name": "manufacturerReward",
          "type": "uint256"
        }
      ],
      "payable": false,
      "stateMutability": "view",
      "type": "function"
    },
    {
      "constant": true,
      "inputs": [
        {
          "name": "rewardAmount",
          "type": "uint256"
        },
        {
          "name": "blocksSinceLastWrite",
          "type": "uint256"
        }
      ],
      "name": "calculateReward",
      "outputs": [
        {
          "name": "",
          "type": "uint256"
        }
      ],
      "payable": false,
      "stateMutability": "view",
      "type": "function"
    },
    {
      "constant": false,
      "inputs": [
        {
          "name": "_deviceIdHashes",
          "type": "bytes32[]"
        },
        {
          "name": "_deviceTypes",
          "type": "bytes32[]"
        },
        {
          "name": "_devicePublicKeys",
          "type": "bytes32[]"
        }
      ],
      "name": "registerDevices",
      "outputs": [
        {
          "name": "",
          "type": "bool"
        }
      ],
      "payable": false,
      "stateMutability": "nonpayable",
      "type": "function"
    },
    {
      "constant": false,
      "inputs": [
        {
          "name": "_member",
          "type": "address"
        },
        {
          "name": "_isIRNAdmin",
          "type": "bool"
        },
        {
          "name": "_isManufacturer",
          "type": "bool"
        },
        {
          "name": "_isIRNNode",
          "type": "bool"
        },
        {
          "name": "_memberId",
          "type": "bytes32"
        }
      ],
      "name": "addNetworkMember",
      "outputs": [
        {
          "name": "",
          "type": "bool"
        }
      ],
      "payable": false,
      "stateMutability": "nonpayable",
      "type": "function"
    },
    {
      "constant": false,
      "inputs": [
        {
          "name": "_member",
          "type": "address"
        }
      ],
      "name": "removeNetworkMember",
      "outputs": [
        {
          "name": "",
          "type": "bool"
        }
      ],
      "payable": false,
      "stateMutability": "nonpayable",
      "type": "function"
    },
    {
      "constant": false,
      "inputs": [
        {
          "name": "_new",
          "type": "address"
        }
      ],
      "name": "changeManufacturerWallet",
      "outputs": [
        {
          "name": "",
          "type": "bool"
        }
      ],
      "payable": false,
      "stateMutability": "nonpayable",
      "type": "function"
    },
    {
      "constant": false,
      "inputs": [
        {
          "name": "newReward",
          "type": "uint256"
        }
      ],
      "name": "setTokenPoolReward",
      "outputs": [
        {
          "name": "",
          "type": "bool"
        }
      ],
      "payable": false,
      "stateMutability": "nonpayable",
      "type": "function"
    },
    {
      "constant": false,
      "inputs": [
        {
          "name": "manufacturerId",
          "type": "bytes32"
        },
        {
          "name": "amount",
          "type": "uint256"
        }
      ],
      "name": "depositTokens",
      "outputs": [
        {
          "name": "",
          "type": "bool"
        }
      ],
      "payable": false,
      "stateMutability": "nonpayable",
      "type": "function"
    },
    {
      "constant": false,
      "inputs": [],
      "name": "withdrawTokens",
      "outputs": [
        {
          "name": "",
          "type": "bool"
        }
      ],
      "payable": false,
      "stateMutability": "nonpayable",
      "type": "function"
    }
  ],
  "bytecode": "0x608060405260008060146101000a81548160ff0219169083151502179055503480156200002b57600080fd5b5060405160c08062006426833981018060405281019080805190602001909291908051906020019092919080519060200190929190805190602001909291908051906020019092919080519060200190929190505050336000806101000a81548173ffffffffffffffffffffffffffffffffffffffff021916908373ffffffffffffffffffffffffffffffffffffffff160217905550600073ffffffffffffffffffffffffffffffffffffffff168673ffffffffffffffffffffffffffffffffffffffff161415151562000167576040517f08c379a000000000000000000000000000000000000000000000000000000000815260040180806020018281038252601b8152602001807f746f6b656e20616464726573732063616e6e6f7420626520307830000000000081525060200191505060405180910390fd5b60008411151562000206576040517f08c379a00000000000000000000000000000000000000000000000000000000081526004018080602001828103825260258152602001807f61637469766174696f6e20666565206d7573742062652067726561746572207481526020017f68616e203000000000000000000000000000000000000000000000000000000081525060400191505060405180910390fd5b600085111515620002a5576040517f08c379a00000000000000000000000000000000000000000000000000000000081526004018080602001828103825260278152602001807f726567697374726174696f6e20666565206d757374206265206772656174657281526020017f207468616e20300000000000000000000000000000000000000000000000000081525060400191505060405180910390fd5b60008311151562000344576040517f08c379a00000000000000000000000000000000000000000000000000000000081526004018080602001828103825260308152602001807f64656661756c742072657075746174696f6e20726577617264206d757374206281526020017f652067726561746572207468616e20300000000000000000000000000000000081525060400191505060405180910390fd5b600082111515620003e3576040517f08c379a00000000000000000000000000000000000000000000000000000000081526004018080602001828103825260228152602001807f6e6577207368617265206d757374206265206c6172676572207468616e207a6581526020017f726f00000000000000000000000000000000000000000000000000000000000081525060400191505060405180910390fd5b6064821115151562000483576040517f08c379a000000000000000000000000000000000000000000000000000000000815260040180806020018281038252602b8152602001807f6e6577207368617265206d757374206265206c657373207468616e206f72206581526020017f7175616c20746f2031303000000000000000000000000000000000000000000081525060400191505060405180910390fd5b85600660006101000a81548173ffffffffffffffffffffffffffffffffffffffff021916908373ffffffffffffffffffffffffffffffffffffffff1602179055508360028190555084600181905550826003819055508160048190555080600581905550505050505050615f2980620004fd6000396000f3006080604052600436106101c2576000357c0100000000000000000000000000000000000000000000000000000000900463ffffffff1680630700037d146101c7578063135ca1241461021e57806313ac2bdb1461028f57806313ed08461461031c57806314c44e09146103675780632217bf7814610392578063222b89471461041e578063252dbc36146104715780633d32cb63146104b65780633f4ba83a1461050d5780634c41a6c714610524578063568f9ce11461054f5780635c975abb146105985780636d54ec91146105c757806377d630ae1461062c5780637900438b146106575780638456cb59146106bc5780638b3edbdf146106d35780638d8f2adb1461072e5780638da5cb5b1461075d57806395f62fb9146107b45780639790268b146108b8578063a10a7782146108fd578063a4063dbc14610928578063aaabdf1614610986578063b27f829e146109b1578063c320c72714610a0c578063c354864714610a51578063c3aa168414610a96578063c5c400de14610b16578063c6786e5a14610ba6578063c8ee2da814610c0c578063e1dcafa314610c51578063f2fde38b14610c96578063fc0c546a14610cd9578063fe4a22eb14610d30575b600080fd5b3480156101d357600080fd5b50610208600480360381019080803573ffffffffffffffffffffffffffffffffffffffff169060200190929190505050610d95565b6040518082815260200191505060405180910390f35b34801561022a57600080fd5b5061024d6004803603810190808035600019169060200190929190505050610dad565b604051808273ffffffffffffffffffffffffffffffffffffffff1673ffffffffffffffffffffffffffffffffffffffff16815260200191505060405180910390f35b34801561029b57600080fd5b50610302600480360381019080803573ffffffffffffffffffffffffffffffffffffffff1690602001909291908035151590602001909291908035151590602001909291908035151590602001909291908035600019169060200190929190505050610de0565b604051808215151515815260200191505060405180910390f35b34801561032857600080fd5b506103516004803603810190808035906020019092919080359060200190929190505050611413565b6040518082815260200191505060405180910390f35b34801561037357600080fd5b5061037c611553565b6040518082815260200191505060405180910390f35b34801561039e57600080fd5b50610401600480360381019080803573ffffffffffffffffffffffffffffffffffffffff169060200190929190803573ffffffffffffffffffffffffffffffffffffffff1690602001909291908035600019169060200190929190505050611559565b604051808381526020018281526020019250505060405180910390f35b34801561042a57600080fd5b50610457600480360381019080803560001916906020019092919080359060200190929190505050611677565b604051808215151515815260200191505060405180910390f35b34801561047d57600080fd5b5061049c600480360381019080803590602001909291905050506119aa565b604051808215151515815260200191505060405180910390f35b3480156104c257600080fd5b506104f360048036038101908080356000191690602001909291908035600019169060200190929190505050611c08565b604051808215151515815260200191505060405180910390f35b34801561051957600080fd5b50610522612004565b005b34801561053057600080fd5b506105396120c2565b6040518082815260200191505060405180910390f35b34801561055b57600080fd5b5061057e60048036038101908080356000191690602001909291905050506120c8565b604051808215151515815260200191505060405180910390f35b3480156105a457600080fd5b506105ad612413565b604051808215151515815260200191505060405180910390f35b3480156105d357600080fd5b50610612600480360381019080803560001916906020019092919080356000191690602001909291908035600019169060200190929190505050612426565b604051808215151515815260200191505060405180910390f35b34801561063857600080fd5b50610641612802565b6040518082815260200191505060405180910390f35b34801561066357600080fd5b506106a2600480360381019080803560001916906020019092919080356000191690602001909291908035600019169060200190929190505050612808565b604051808215151515815260200191505060405180910390f35b3480156106c857600080fd5b506106d1612b30565b005b3480156106df57600080fd5b50610714600480360381019080803573ffffffffffffffffffffffffffffffffffffffff169060200190929190505050612bf0565b604051808215151515815260200191505060405180910390f35b34801561073a57600080fd5b5061074361365f565b604051808215151515815260200191505060405180910390f35b34801561076957600080fd5b50610772613947565b604051808273ffffffffffffffffffffffffffffffffffffffff1673ffffffffffffffffffffffffffffffffffffffff16815260200191505060405180910390f35b3480156107c057600080fd5b5061089e60048036038101908080359060200190820180359060200190808060200260200160405190810160405280939291908181526020018383602002808284378201915050505050509192919290803590602001908201803590602001908080602002602001604051908101604052809392919081815260200183836020028082843782019150505050505091929192908035906020019082018035906020019080806020026020016040519081016040528093929190818152602001838360200280828437820191505050505050919291929050505061396c565b604051808215151515815260200191505060405180910390f35b3480156108c457600080fd5b506108e360048036038101908080359060200190929190505050613ed7565b604051808215151515815260200191505060405180910390f35b34801561090957600080fd5b5061091261400c565b6040518082815260200191505060405180910390f35b34801561093457600080fd5b50610969600480360381019080803573ffffffffffffffffffffffffffffffffffffffff169060200190929190505050614012565b604051808381526020018281526020019250505060405180910390f35b34801561099257600080fd5b5061099b614036565b6040518082815260200191505060405180910390f35b3480156109bd57600080fd5b506109f2600480360381019080803573ffffffffffffffffffffffffffffffffffffffff16906020019092919050505061403c565b604051808215151515815260200191505060405180910390f35b348015610a1857600080fd5b50610a37600480360381019080803590602001909291905050506143c0565b604051808215151515815260200191505060405180910390f35b348015610a5d57600080fd5b50610a7c600480360381019080803590602001909291905050506145b9565b604051808215151515815260200191505060405180910390f35b348015610aa257600080fd5b50610ad7600480360381019080803573ffffffffffffffffffffffffffffffffffffffff1690602001909291905050506147b2565b60405180851515151581526020018415151515815260200183151515158152602001826000191660001916815260200194505050505060405180910390f35b348015610b2257600080fd5b50610b456004803603810190808035600019169060200190929190505050614809565b6040518087600019166000191681526020018660001916600019168152602001851515151581526020018415151515815260200183600019166000191681526020018260001916600019168152602001965050505050505060405180910390f35b348015610bb257600080fd5b50610c0a6004803603810190808035906020019082018035906020019080806020026020016040519081016040528093929190818152602001838360200280828437820191505050505050919291929050505061485f565b005b348015610c1857600080fd5b50610c3760048036038101908080359060200190929190505050614b06565b604051808215151515815260200191505060405180910390f35b348015610c5d57600080fd5b50610c7c60048036038101908080359060200190929190505050614d78565b604051808215151515815260200191505060405180910390f35b348015610ca257600080fd5b50610cd7600480360381019080803573ffffffffffffffffffffffffffffffffffffffff169060200190929190505050614f71565b005b348015610ce557600080fd5b50610cee6150c6565b604051808273ffffffffffffffffffffffffffffffffffffffff1673ffffffffffffffffffffffffffffffffffffffff16815260200191505060405180910390f35b348015610d3c57600080fd5b50610d7f600480360381019080803573ffffffffffffffffffffffffffffffffffffffff16906020019092919080356000191690602001909291905050506150ec565b6040518082815260200191505060405180910390f35b600a6020528060005260406000206000915090505481565b600b6020528060005260406000206000915054906101000a900473ffffffffffffffffffffffffffffffffffffffff1681565b6000806000809054906101000a900473ffffffffffffffffffffffffffffffffffffffff1673ffffffffffffffffffffffffffffffffffffffff163373ffffffffffffffffffffffffffffffffffffffff161480610e8a5750600860003373ffffffffffffffffffffffffffffffffffffffff1673ffffffffffffffffffffffffffffffffffffffff16815260200190815260200160002060000160009054906101000a900460ff165b1515610efe576040517f08c379a000000000000000000000000000000000000000000000000000000000815260040180806020018281038252601d8152602001807f6d757374206265206f776e6572206f7220616e2069726e2061646d696e00000081525060200191505060405180910390fd5b600860008873ffffffffffffffffffffffffffffffffffffffff1673ffffffffffffffffffffffffffffffffffffffff16815260200190815260200160002090508060000160009054906101000a900460ff16151515610fc6576040517f08c379a00000000000000000000000000000000000000000000000000000000081526004018080602001828103825260148152602001807f616c726561647920616e2069726e2061646d696e00000000000000000000000081525060200191505060405180910390fd5b8060000160019054906101000a900460ff1615151561104d576040517f08c379a00000000000000000000000000000000000000000000000000000000081526004018080602001828103825260168152602001807f616c72656164792061206d616e7566616374757265720000000000000000000081525060200191505060405180910390fd5b8060000160029054906101000a900460ff161515156110d4576040517f08c379a00000000000000000000000000000000000000000000000000000000081526004018080602001828103825260138152602001807f616c726561647920616e2069726e206e6f64650000000000000000000000000081525060200191505060405180910390fd5b6000600102816001015460001916141515611157576040517f08c379a000000000000000000000000000000000000000000000000000000000815260040180806020018281038252601c8152602001807f616c72656164792061737369676e65642061206d656d6265722069640000000081525060200191505060405180910390fd5b858160000160006101000a81548160ff021916908315150217905550848160000160016101000a81548160ff021916908315150217905550838160000160026101000a81548160ff021916908315150217905550828160010181600019169055508060000160019054906101000a900460ff16156113a657600073ffffffffffffffffffffffffffffffffffffffff16600b600083600101546000191660001916815260200190815260200160002060009054906101000a900473ffffffffffffffffffffffffffffffffffffffff1673ffffffffffffffffffffffffffffffffffffffff161415156112b2576040517f08c379a00000000000000000000000000000000000000000000000000000000081526004018080602001828103825260208152602001807f6d616e75666163747572657220697320616c72656164792061737369676e656481525060200191505060405180910390fd5b86600b600083600101546000191660001916815260200190815260200160002060006101000a81548173ffffffffffffffffffffffffffffffffffffffff021916908373ffffffffffffffffffffffffffffffffffffffff1602179055506000600960008973ffffffffffffffffffffffffffffffffffffffff1673ffffffffffffffffffffffffffffffffffffffff1681526020019081526020016000206001015414156113a557600354600960008973ffffffffffffffffffffffffffffffffffffffff1673ffffffffffffffffffffffffffffffffffffffff168152602001908152602001600020600101819055505b5b82600019168773ffffffffffffffffffffffffffffffffffffffff163373ffffffffffffffffffffffffffffffffffffffff167fdb4fd010b1822efc1cfe6c978216999bda713c5f143d17f2e142d61d79c2cfaf60405160405180910390a4600191505095945050505050565b600080600084915060008411801561142c575060055484105b1561154857600660009054906101000a900473ffffffffffffffffffffffffffffffffffffffff1673ffffffffffffffffffffffffffffffffffffffff1663313ce5676040518163ffffffff167c0100000000000000000000000000000000000000000000000000000000028152600401602060405180830381600087803b1580156114b757600080fd5b505af11580156114cb573d6000803e3d6000fd5b505050506040513d60208110156114e157600080fd5b810190808051906020019092919050505060ff16600a0a90506115456115128260055461511190919063ffffffff16565b611537611528848861511190919063ffffffff16565b8861511190919063ffffffff16565b61514990919063ffffffff16565b91505b819250505092915050565b60015481565b6000806000806000600c60008973ffffffffffffffffffffffffffffffffffffffff1673ffffffffffffffffffffffffffffffffffffffff168152602001908152602001600020600087600019166000191681526020019081526020016000205492506000915060008311156115df576115dc834361515f90919063ffffffff16565b91505b61162b600960008973ffffffffffffffffffffffffffffffffffffffff1673ffffffffffffffffffffffffffffffffffffffff1681526020019081526020016000206001015483611413565b905061165560646116476004548461511190919063ffffffff16565b61514990919063ffffffff16565b945061166a858261515f90919063ffffffff16565b9350505050935093915050565b60008060006001028460001916141515156116fa576040517f08c379a000000000000000000000000000000000000000000000000000000000815260040180806020018281038252601a8152602001807f6d616e756661637475726572496420697320726571756972656400000000000081525060200191505060405180910390fd5b600083111515611772576040517f08c379a00000000000000000000000000000000000000000000000000000000081526004018080602001828103825260128152602001807f616d6f756e74206973207265717569726564000000000000000000000000000081525060200191505060405180910390fd5b600b6000856000191660001916815260200190815260200160002060009054906101000a900473ffffffffffffffffffffffffffffffffffffffff169050600073ffffffffffffffffffffffffffffffffffffffff168173ffffffffffffffffffffffffffffffffffffffff16141515156117ec57600080fd5b6117f68184615178565b8073ffffffffffffffffffffffffffffffffffffffff1684600019163373ffffffffffffffffffffffffffffffffffffffff167f811880d278d5f75cf96199a9c79c2fa6e8eebee04e2afda088a7b1dd765889bb866040518082815260200191505060405180910390a4600660009054906101000a900473ffffffffffffffffffffffffffffffffffffffff1673ffffffffffffffffffffffffffffffffffffffff166323b872dd3330866040518463ffffffff167c0100000000000000000000000000000000000000000000000000000000028152600401808473ffffffffffffffffffffffffffffffffffffffff1673ffffffffffffffffffffffffffffffffffffffff1681526020018373ffffffffffffffffffffffffffffffffffffffff1673ffffffffffffffffffffffffffffffffffffffff1681526020018281526020019350505050602060405180830381600087803b15801561195957600080fd5b505af115801561196d573d6000803e3d6000fd5b505050506040513d602081101561198357600080fd5b8101908080519060200190929190505050151561199f57600080fd5b600191505092915050565b600080600860003373ffffffffffffffffffffffffffffffffffffffff1673ffffffffffffffffffffffffffffffffffffffff16815260200190815260200160002060000160019054906101000a900460ff161515611a71576040517f08c379a00000000000000000000000000000000000000000000000000000000081526004018080602001828103825260168152602001807f6d7573742062652061206d616e7566616374757265720000000000000000000081525060200191505060405180910390fd5b60008314151515611aea576040517f08c379a00000000000000000000000000000000000000000000000000000000081526004018080602001828103825260158152602001807f6e6577526577617264206973207265717569726564000000000000000000000081525060200191505060405180910390fd5b600960003373ffffffffffffffffffffffffffffffffffffffff1673ffffffffffffffffffffffffffffffffffffffff168152602001908152602001600020905082816001015414151515611ba7576040517f08c379a000000000000000000000000000000000000000000000000000000000815260040180806020018281038252601d8152602001807f6e65775265776172642073686f756c6420626520646966666572656e7400000081525060200191505060405180910390fd5b8281600101819055503373ffffffffffffffffffffffffffffffffffffffff167f78b008c8623496713f0a108a67aa2804f75d388bf5f12cd93e8a5bb404b579e5846040518082815260200191505060405180910390a26001915050919050565b6000611c12615e84565b6000806000600860003373ffffffffffffffffffffffffffffffffffffffff1673ffffffffffffffffffffffffffffffffffffffff16815260200190815260200160002060000160029054906101000a900460ff161515611cdb576040517f08c379a00000000000000000000000000000000000000000000000000000000081526004018080602001828103825260138152602001807f6d75737420626520616e2069726e206e6f64650000000000000000000000000081525060200191505060405180910390fd5b600060149054906101000a900460ff16151515611cf757600080fd5b611d018787615217565b9350600b600085600001516000191660001916815260200190815260200160002060009054906101000a900473ffffffffffffffffffffffffffffffffffffffff169250600073ffffffffffffffffffffffffffffffffffffffff168373ffffffffffffffffffffffffffffffffffffffff1614151515611e10576040517f08c379a00000000000000000000000000000000000000000000000000000000081526004018080602001828103825260218152602001807f5f6d616e75666163747572657257616c6c65742063616e6e6f7420626520307881526020017f300000000000000000000000000000000000000000000000000000000000000081525060400191505060405180910390fd5b3373ffffffffffffffffffffffffffffffffffffffff168373ffffffffffffffffffffffffffffffffffffffff1614151515611eda576040517f08c379a000000000000000000000000000000000000000000000000000000000815260040180806020018281038252602c8152602001807f6d616e756661637475726572732063616e6e6f7420636f6c6c6563742074686581526020017f2066756c6c20726577617264000000000000000000000000000000000000000081525060400191505060405180910390fd5b611ee5338489611559565b8092508193505050611ef883338461550b565b611f0383848361550b565b8273ffffffffffffffffffffffffffffffffffffffff163373ffffffffffffffffffffffffffffffffffffffff1688600019167f623469fb6c872fc53daa40e4a20f7eb2fc3fe6816dacc59ad6f3b924f679174587602001518a8787604051808560001916600019168152602001846000191660001916815260200183815260200182815260200194505050505060405180910390a443600c60003373ffffffffffffffffffffffffffffffffffffffff1673ffffffffffffffffffffffffffffffffffffffff1681526020019081526020016000206000896000191660001916815260200190815260200160002081905550600194505050505092915050565b6000809054906101000a900473ffffffffffffffffffffffffffffffffffffffff1673ffffffffffffffffffffffffffffffffffffffff163373ffffffffffffffffffffffffffffffffffffffff1614151561205f57600080fd5b600060149054906101000a900460ff16151561207a57600080fd5b60008060146101000a81548160ff0219169083151502179055507f7805862f689e2f13df9f062ff482ad3ad112aca9e0847911ed832e158c525b3360405160405180910390a1565b60055481565b60006120d2615e84565b60008060149054906101000a900460ff161515156120ef57600080fd5b6120f8846156b8565b915081600001516000191684600019163373ffffffffffffffffffffffffffffffffffffffff167fba2136e45a61f966f69316c7c8ff08dc8ffb4886fc5d9027314755ee1a62385760025486602001516040518083815260200182600019166000191681526020019250505060405180910390a4600b600083600001516000191660001916815260200190815260200160002060009054906101000a900473ffffffffffffffffffffffffffffffffffffffff1690503073ffffffffffffffffffffffffffffffffffffffff168173ffffffffffffffffffffffffffffffffffffffff1614151515612252576040517f08c379a00000000000000000000000000000000000000000000000000000000081526004018080602001828103825260178152602001807f6d616e75666163747572657220697320756e6b6e6f776e00000000000000000081525060200191505060405180910390fd5b61225e81600254615178565b600660009054906101000a900473ffffffffffffffffffffffffffffffffffffffff1673ffffffffffffffffffffffffffffffffffffffff166323b872dd33306002546040518463ffffffff167c0100000000000000000000000000000000000000000000000000000000028152600401808473ffffffffffffffffffffffffffffffffffffffff1673ffffffffffffffffffffffffffffffffffffffff1681526020018373ffffffffffffffffffffffffffffffffffffffff1673ffffffffffffffffffffffffffffffffffffffff1681526020018281526020019350505050602060405180830381600087803b15801561235957600080fd5b505af115801561236d573d6000803e3d6000fd5b505050506040513d602081101561238357600080fd5b81019080805190602001909291905050501515612408576040517f08c379a00000000000000000000000000000000000000000000000000000000081526004018080602001828103825260138152602001807f7472616e7366657246726f6d206661696c65640000000000000000000000000081525060200191505060405180910390fd5b600192505050919050565b600060149054906101000a900460ff1681565b600080612431615e84565b600080600860003373ffffffffffffffffffffffffffffffffffffffff1673ffffffffffffffffffffffffffffffffffffffff16815260200190815260200160002060000160019054906101000a900460ff1615156124f8576040517f08c379a00000000000000000000000000000000000000000000000000000000081526004018080602001828103825260168152602001807f6d7573742062652061206d616e7566616374757265720000000000000000000081525060200191505060405180910390fd5b600060149054906101000a900460ff1615151561251457600080fd5b876040518082600019166000191681526020019150506040518091039020935061254033858989615942565b925082600001519150816000191684600019163373ffffffffffffffffffffffffffffffffffffffff167f0eb7a49a7f427b424a9fe87d487fd12d3f155c956145b0ac06a72ea85235e7d56001548b6040518083815260200182600019166000191681526020019250505060405180910390a46125bc886156b8565b9250816000191688600019163373ffffffffffffffffffffffffffffffffffffffff167fba2136e45a61f966f69316c7c8ff08dc8ffb4886fc5d9027314755ee1a6238576002548b6040518083815260200182600019166000191681526020019250505060405180910390a461263f600254600154615e6890919063ffffffff16565b905061264b3382615178565b600660009054906101000a900473ffffffffffffffffffffffffffffffffffffffff1673ffffffffffffffffffffffffffffffffffffffff166323b872dd3330846040518463ffffffff167c0100000000000000000000000000000000000000000000000000000000028152600401808473ffffffffffffffffffffffffffffffffffffffff1673ffffffffffffffffffffffffffffffffffffffff1681526020018373ffffffffffffffffffffffffffffffffffffffff1673ffffffffffffffffffffffffffffffffffffffff1681526020018281526020019350505050602060405180830381600087803b15801561274457600080fd5b505af1158015612758573d6000803e3d6000fd5b505050506040513d602081101561276e57600080fd5b810190808051906020019092919050505015156127f3576040517f08c379a00000000000000000000000000000000000000000000000000000000081526004018080602001828103825260138152602001807f7472616e7366657246726f6d206661696c65640000000000000000000000000081525060200191505060405180910390fd5b60019450505050509392505050565b60025481565b6000612812615e84565b600860003373ffffffffffffffffffffffffffffffffffffffff1673ffffffffffffffffffffffffffffffffffffffff16815260200190815260200160002060000160019054906101000a900460ff1615156128d6576040517f08c379a00000000000000000000000000000000000000000000000000000000081526004018080602001828103825260168152602001807f6d7573742062652061206d616e7566616374757265720000000000000000000081525060200191505060405180910390fd5b600060149054906101000a900460ff161515156128f257600080fd5b6128fe33868686615942565b905080600001516000191685600019163373ffffffffffffffffffffffffffffffffffffffff167f0eb7a49a7f427b424a9fe87d487fd12d3f155c956145b0ac06a72ea85235e7d5600154886040518083815260200182600019166000191681526020019250505060405180910390a461297a33600154615178565b600660009054906101000a900473ffffffffffffffffffffffffffffffffffffffff1673ffffffffffffffffffffffffffffffffffffffff166323b872dd33306001546040518463ffffffff167c0100000000000000000000000000000000000000000000000000000000028152600401808473ffffffffffffffffffffffffffffffffffffffff1673ffffffffffffffffffffffffffffffffffffffff1681526020018373ffffffffffffffffffffffffffffffffffffffff1673ffffffffffffffffffffffffffffffffffffffff1681526020018281526020019350505050602060405180830381600087803b158015612a7557600080fd5b505af1158015612a89573d6000803e3d6000fd5b505050506040513d6020811015612a9f57600080fd5b81019080805190602001909291905050501515612b24576040517f08c379a00000000000000000000000000000000000000000000000000000000081526004018080602001828103825260138152602001807f7472616e7366657246726f6d206661696c65640000000000000000000000000081525060200191505060405180910390fd5b60019150509392505050565b6000809054906101000a900473ffffffffffffffffffffffffffffffffffffffff1673ffffffffffffffffffffffffffffffffffffffff163373ffffffffffffffffffffffffffffffffffffffff16141515612b8b57600080fd5b600060149054906101000a900460ff16151515612ba757600080fd5b6001600060146101000a81548160ff0219169083151502179055507f6985a02210a168e66602d3235cb6db0e70f92b3ba4d376a33c0f3d9434bff62560405160405180910390a1565b6000612bfa615ecb565b600860003373ffffffffffffffffffffffffffffffffffffffff1673ffffffffffffffffffffffffffffffffffffffff16815260200190815260200160002060000160019054906101000a900460ff161515612cbe576040517f08c379a00000000000000000000000000000000000000000000000000000000081526004018080602001828103825260168152602001807f6d7573742062652061206d616e7566616374757265720000000000000000000081525060200191505060405180910390fd5b600073ffffffffffffffffffffffffffffffffffffffff168373ffffffffffffffffffffffffffffffffffffffff1614151515612d63576040517f08c379a00000000000000000000000000000000000000000000000000000000081526004018080602001828103825260198152602001807f6e657720616464726573732063616e6e6f74206265203078300000000000000081525060200191505060405180910390fd5b600860003373ffffffffffffffffffffffffffffffffffffffff1673ffffffffffffffffffffffffffffffffffffffff168152602001908152602001600020608060405190810160405290816000820160009054906101000a900460ff161515151581526020016000820160019054906101000a900460ff161515151581526020016000820160029054906101000a900460ff161515151581526020016001820154600019166000191681525050905080602001518015612e305750600060010281606001516000191614155b1515612ea4576040517f08c379a00000000000000000000000000000000000000000000000000000000081526004018080602001828103825260168152602001807f6d7573742062652061206d616e7566616374757265720000000000000000000081525060200191505060405180910390fd5b600860008473ffffffffffffffffffffffffffffffffffffffff1673ffffffffffffffffffffffffffffffffffffffff16815260200190815260200160002060000160009054906101000a900460ff16151515612f69576040517f08c379a00000000000000000000000000000000000000000000000000000000081526004018080602001828103825260148152602001807f616c726561647920616e2069726e2061646d696e00000000000000000000000081525060200191505060405180910390fd5b600860008473ffffffffffffffffffffffffffffffffffffffff1673ffffffffffffffffffffffffffffffffffffffff16815260200190815260200160002060000160019054906101000a900460ff1615151561302e576040517f08c379a00000000000000000000000000000000000000000000000000000000081526004018080602001828103825260168152602001807f616c72656164792061206d616e7566616374757265720000000000000000000081525060200191505060405180910390fd5b600860008473ffffffffffffffffffffffffffffffffffffffff1673ffffffffffffffffffffffffffffffffffffffff16815260200190815260200160002060000160029054906101000a900460ff161515156130f3576040517f08c379a00000000000000000000000000000000000000000000000000000000081526004018080602001828103825260138152602001807f616c726561647920616e2069726e206e6f64650000000000000000000000000081525060200191505060405180910390fd5b6000600102600860008573ffffffffffffffffffffffffffffffffffffffff1673ffffffffffffffffffffffffffffffffffffffff16815260200190815260200160002060010154600019161415156131b4576040517f08c379a00000000000000000000000000000000000000000000000000000000081526004018080602001828103825260178152602001807f6d656d626572496420616c72656164792065786973747300000000000000000081525060200191505060405180910390fd5b608060405190810160405280826000015115158152602001826020015115158152602001826040015115158152602001826060015160001916815250600860008573ffffffffffffffffffffffffffffffffffffffff1673ffffffffffffffffffffffffffffffffffffffff16815260200190815260200160002060008201518160000160006101000a81548160ff02191690831515021790555060208201518160000160016101000a81548160ff02191690831515021790555060408201518160000160026101000a81548160ff021916908315150217905550606082015181600101906000191690559050506000600960008573ffffffffffffffffffffffffffffffffffffffff1673ffffffffffffffffffffffffffffffffffffffff1681526020019081526020016000206000015414801561333657506000600960008573ffffffffffffffffffffffffffffffffffffffff1673ffffffffffffffffffffffffffffffffffffffff16815260200190815260200160002060010154145b15156133aa576040517f08c379a000000000000000000000000000000000000000000000000000000000815260040180806020018281038252601d8152602001807f6e657720746f6b656e20706f6f6c20616c72656164792065786973747300000081525060200191505060405180910390fd5b600960003373ffffffffffffffffffffffffffffffffffffffff1673ffffffffffffffffffffffffffffffffffffffff16815260200190815260200160002060000154600960008573ffffffffffffffffffffffffffffffffffffffff1673ffffffffffffffffffffffffffffffffffffffff16815260200190815260200160002060000181905550600960003373ffffffffffffffffffffffffffffffffffffffff1673ffffffffffffffffffffffffffffffffffffffff16815260200190815260200160002060010154600960008573ffffffffffffffffffffffffffffffffffffffff1673ffffffffffffffffffffffffffffffffffffffff16815260200190815260200160002060010181905550600960003373ffffffffffffffffffffffffffffffffffffffff1673ffffffffffffffffffffffffffffffffffffffff1681526020019081526020016000206000808201600090556001820160009055505082600b600083606001516000191660001916815260200190815260200160002060006101000a81548173ffffffffffffffffffffffffffffffffffffffff021916908373ffffffffffffffffffffffffffffffffffffffff160217905550600860003373ffffffffffffffffffffffffffffffffffffffff1673ffffffffffffffffffffffffffffffffffffffff168152602001908152602001600020600080820160006101000a81549060ff02191690556000820160016101000a81549060ff02191690556000820160026101000a81549060ff0219169055600182016000905550508060600151600019168373ffffffffffffffffffffffffffffffffffffffff163373ffffffffffffffffffffffffffffffffffffffff167fcd2abdf6b4e963e07e9584816486597def4b3ec7dee88f7f66ad7dfb2c40d79e60405160405180910390a46001915050919050565b600080600060149054906101000a900460ff1615151561367e57600080fd5b600a60003373ffffffffffffffffffffffffffffffffffffffff1673ffffffffffffffffffffffffffffffffffffffff168152602001908152602001600020549050600081111515613738576040517f08c379a000000000000000000000000000000000000000000000000000000000815260040180806020018281038252600e8152602001807f616d6f756e74206973207a65726f00000000000000000000000000000000000081525060200191505060405180910390fd5b6000600a60003373ffffffffffffffffffffffffffffffffffffffff1673ffffffffffffffffffffffffffffffffffffffff168152602001908152602001600020819055503373ffffffffffffffffffffffffffffffffffffffff167f6352c5382c4a4578e712449ca65e83cdb392d045dfcf1cad9615189db2da244b826040518082815260200191505060405180910390a2600660009054906101000a900473ffffffffffffffffffffffffffffffffffffffff1673ffffffffffffffffffffffffffffffffffffffff1663a9059cbb33836040518363ffffffff167c0100000000000000000000000000000000000000000000000000000000028152600401808373ffffffffffffffffffffffffffffffffffffffff1673ffffffffffffffffffffffffffffffffffffffff16815260200182815260200192505050602060405180830381600087803b15801561389057600080fd5b505af11580156138a4573d6000803e3d6000fd5b505050506040513d60208110156138ba57600080fd5b8101908080519060200190929190505050151561393f576040517f08c379a00000000000000000000000000000000000000000000000000000000081526004018080602001828103825260158152602001807f746f6b656e207472616e73666572206661696c6564000000000000000000000081525060200191505060405180910390fd5b600191505090565b6000809054906101000a900473ffffffffffffffffffffffffffffffffffffffff1681565b60008060008060008061397d615e84565b600860003373ffffffffffffffffffffffffffffffffffffffff1673ffffffffffffffffffffffffffffffffffffffff16815260200190815260200160002060000160019054906101000a900460ff161515613a41576040517f08c379a00000000000000000000000000000000000000000000000000000000081526004018080602001828103825260168152602001807f6d7573742062652061206d616e7566616374757265720000000000000000000081525060200191505060405180910390fd5b600060149054906101000a900460ff16151515613a5d57600080fd5b60008a51111515613ad6576040517f08c379a000000000000000000000000000000000000000000000000000000000815260040180806020018281038252601f8152602001807f6174206c65617374206f6e65206465766963652069732072657175697265640081525060200191505060405180910390fd5b88518a51141515613b75576040517f08c379a00000000000000000000000000000000000000000000000000000000081526004018080602001828103825260328152602001807f6465766963652074797065206172726179206e6565647320746f20626520736181526020017f6d652073697a652061732064657669636573000000000000000000000000000081525060400191505060405180910390fd5b87518a51141515613c14576040517f08c379a00000000000000000000000000000000000000000000000000000000081526004018080602001828103825260388152602001807f646576696365207075626c6963206b6579206172726179206e6565647320746f81526020017f2062652073616d652073697a652061732064657669636573000000000000000081525060400191505060405180910390fd5b60009550600094505b8951851015613d14578985815181101515613c3457fe5b9060200190602002015193508885815181101515613c4e57fe5b9060200190602002015192508785815181101515613c6857fe5b906020019060200201519150613c8033858585615942565b905080600001516000191684600019163373ffffffffffffffffffffffffffffffffffffffff167f0eb7a49a7f427b424a9fe87d487fd12d3f155c956145b0ac06a72ea85235e7d5600154876040518083815260200182600019166000191681526020019250505060405180910390a4613d0560015487615e6890919063ffffffff16565b95508480600101955050613c1d565b613d1e3387615178565b600660009054906101000a900473ffffffffffffffffffffffffffffffffffffffff1673ffffffffffffffffffffffffffffffffffffffff166323b872dd3330896040518463ffffffff167c0100000000000000000000000000000000000000000000000000000000028152600401808473ffffffffffffffffffffffffffffffffffffffff1673ffffffffffffffffffffffffffffffffffffffff1681526020018373ffffffffffffffffffffffffffffffffffffffff1673ffffffffffffffffffffffffffffffffffffffff1681526020018281526020019350505050602060405180830381600087803b158015613e1757600080fd5b505af1158015613e2b573d6000803e3d6000fd5b505050506040513d6020811015613e4157600080fd5b81019080805190602001909291905050501515613ec6576040517f08c379a00000000000000000000000000000000000000000000000000000000081526004018080602001828103825260138152602001807f7472616e7366657246726f6d206661696c65640000000000000000000000000081525060200191505060405180910390fd5b600196505050505050509392505050565b60008060009054906101000a900473ffffffffffffffffffffffffffffffffffffffff1673ffffffffffffffffffffffffffffffffffffffff163373ffffffffffffffffffffffffffffffffffffffff16141515613f3457600080fd5b6005548214151515613fae576040517f08c379a00000000000000000000000000000000000000000000000000000000081526004018080602001828103825260118152602001807f6d75737420626520646966666572656e7400000000000000000000000000000081525060200191505060405180910390fd5b816005819055503373ffffffffffffffffffffffffffffffffffffffff167fe9c082109c01e25425b476e083c690acecd623672e489c4e68e890872cfcf7c1836040518082815260200191505060405180910390a260019050919050565b60035481565b60096020528060005260406000206000915090508060000154908060010154905082565b60045481565b6000806000809054906101000a900473ffffffffffffffffffffffffffffffffffffffff1673ffffffffffffffffffffffffffffffffffffffff163373ffffffffffffffffffffffffffffffffffffffff1614806140e65750600860003373ffffffffffffffffffffffffffffffffffffffff1673ffffffffffffffffffffffffffffffffffffffff16815260200190815260200160002060000160009054906101000a900460ff165b151561415a576040517f08c379a000000000000000000000000000000000000000000000000000000000815260040180806020018281038252601d8152602001807f6d757374206265206f776e6572206f7220616e2069726e2061646d696e00000081525060200191505060405180910390fd5b600860008473ffffffffffffffffffffffffffffffffffffffff1673ffffffffffffffffffffffffffffffffffffffff168152602001908152602001600020600101549050600860008473ffffffffffffffffffffffffffffffffffffffff1673ffffffffffffffffffffffffffffffffffffffff16815260200190815260200160002060000160019054906101000a900460ff16156142d1576000600960008573ffffffffffffffffffffffffffffffffffffffff1673ffffffffffffffffffffffffffffffffffffffff16815260200190815260200160002060000154141561429257600960008473ffffffffffffffffffffffffffffffffffffffff1673ffffffffffffffffffffffffffffffffffffffff168152602001908152602001600020600080820160009055600182016000905550505b600b6000826000191660001916815260200190815260200160002060006101000a81549073ffffffffffffffffffffffffffffffffffffffff02191690555b600860008473ffffffffffffffffffffffffffffffffffffffff1673ffffffffffffffffffffffffffffffffffffffff168152602001908152602001600020600080820160006101000a81549060ff02191690556000820160016101000a81549060ff02191690556000820160026101000a81549060ff02191690556001820160009055505080600019168373ffffffffffffffffffffffffffffffffffffffff163373ffffffffffffffffffffffffffffffffffffffff167fdb9b3d3fa67ccdd9e527c3495268d215a339f094b8e0997c3bc9eef209a5016060405160405180910390a46001915050919050565b60008060009054906101000a900473ffffffffffffffffffffffffffffffffffffffff1673ffffffffffffffffffffffffffffffffffffffff163373ffffffffffffffffffffffffffffffffffffffff1614151561441d57600080fd5b6000821115156144bb576040517f08c379a000000000000000000000000000000000000000000000000000000000815260040180806020018281038252602e8152602001807f6e657720726567697374726174696f6e20666565206d7573742062652067726581526020017f61746572207468616e207a65726f00000000000000000000000000000000000081525060400191505060405180910390fd5b600154821415151561455b576040517f08c379a00000000000000000000000000000000000000000000000000000000081526004018080602001828103825260268152602001807f6e657720726567697374726174696f6e20666565206d7573742062652064696681526020017f666572656e74000000000000000000000000000000000000000000000000000081525060400191505060405180910390fd5b816001819055503373ffffffffffffffffffffffffffffffffffffffff167fe6f922fdbe16d4eef86eb570ec4aba95a86ab92041f361511c6ae25984967c64836040518082815260200191505060405180910390a260019050919050565b60008060009054906101000a900473ffffffffffffffffffffffffffffffffffffffff1673ffffffffffffffffffffffffffffffffffffffff163373ffffffffffffffffffffffffffffffffffffffff1614151561461657600080fd5b6000821115156146b4576040517f08c379a000000000000000000000000000000000000000000000000000000000815260040180806020018281038252602c8152602001807f6e65772061637469766174696f6e20666565206d75737420626520677265617481526020017f6572207468616e207a65726f000000000000000000000000000000000000000081525060400191505060405180910390fd5b6002548214151515614754576040517f08c379a00000000000000000000000000000000000000000000000000000000081526004018080602001828103825260248152602001807f6e65772061637469766174696f6e20666565206d75737420626520646966666581526020017f72656e740000000000000000000000000000000000000000000000000000000081525060400191505060405180910390fd5b816002819055503373ffffffffffffffffffffffffffffffffffffffff167f0234940f43dc1529eab9d5a44bf26ce660a7ac8915fd003aeffd7da4ddd16c81836040518082815260200191505060405180910390a260019050919050565b60086020528060005260406000206000915090508060000160009054906101000a900460ff16908060000160019054906101000a900460ff16908060000160029054906101000a900460ff16908060010154905084565b60076020528060005260406000206000915090508060000154908060010154908060020160009054906101000a900460ff16908060020160019054906101000a900460ff16908060030154908060040154905086565b60008060008060009054906101000a900473ffffffffffffffffffffffffffffffffffffffff1673ffffffffffffffffffffffffffffffffffffffff163373ffffffffffffffffffffffffffffffffffffffff161415156148bf57600080fd5b600092505b8351831015614acc5783838151811015156148db57fe5b9060200190602002015191508173ffffffffffffffffffffffffffffffffffffffff166370a08231306040518263ffffffff167c0100000000000000000000000000000000000000000000000000000000028152600401808273ffffffffffffffffffffffffffffffffffffffff1673ffffffffffffffffffffffffffffffffffffffff168152602001915050602060405180830381600087803b15801561498257600080fd5b505af1158015614996573d6000803e3d6000fd5b505050506040513d60208110156149ac57600080fd5b810190808051906020019092919050505090508173ffffffffffffffffffffffffffffffffffffffff1663a9059cbb6000809054906101000a900473ffffffffffffffffffffffffffffffffffffffff16836040518363ffffffff167c0100000000000000000000000000000000000000000000000000000000028152600401808373ffffffffffffffffffffffffffffffffffffffff1673ffffffffffffffffffffffffffffffffffffffff16815260200182815260200192505050602060405180830381600087803b158015614a8357600080fd5b505af1158015614a97573d6000803e3d6000fd5b505050506040513d6020811015614aad57600080fd5b81019080805190602001909291905050505082806001019350506148c4565b6000809054906101000a900473ffffffffffffffffffffffffffffffffffffffff1673ffffffffffffffffffffffffffffffffffffffff16ff5b60008060009054906101000a900473ffffffffffffffffffffffffffffffffffffffff1673ffffffffffffffffffffffffffffffffffffffff163373ffffffffffffffffffffffffffffffffffffffff16141515614b6357600080fd5b600082111515614c01576040517f08c379a00000000000000000000000000000000000000000000000000000000081526004018080602001828103825260228152602001807f6e6577207368617265206d757374206265206c6172676572207468616e207a6581526020017f726f00000000000000000000000000000000000000000000000000000000000081525060400191505060405180910390fd5b60648211151515614ca0576040517f08c379a000000000000000000000000000000000000000000000000000000000815260040180806020018281038252602b8152602001807f6e6577207368617265206d757374206265206c657373207468616e206f72206581526020017f7175616c20746f2031303000000000000000000000000000000000000000000081525060400191505060405180910390fd5b8160045414151515614d1a576040517f08c379a000000000000000000000000000000000000000000000000000000000815260040180806020018281038252601b8152602001807f6e6577207368617265206d75737420626520646966666572656e74000000000081525060200191505060405180910390fd5b816004819055503373ffffffffffffffffffffffffffffffffffffffff167f198c873bcde5a55b0d7230eef2c7a7f5a3108ef88ddc99fd4aef43a686712538836040518082815260200191505060405180910390a260019050919050565b60008060009054906101000a900473ffffffffffffffffffffffffffffffffffffffff1673ffffffffffffffffffffffffffffffffffffffff163373ffffffffffffffffffffffffffffffffffffffff16141515614dd557600080fd5b600082111515614e73576040517f08c379a000000000000000000000000000000000000000000000000000000000815260040180806020018281038252602f8152602001807f6e65772072657075746174696f6e20726577617264206d75737420626520677281526020017f6561746572207468616e207a65726f000000000000000000000000000000000081525060400191505060405180910390fd5b6003548214151515614f13576040517f08c379a00000000000000000000000000000000000000000000000000000000081526004018080602001828103825260278152602001807f6e65772072657075746174696f6e20726577617264206d75737420626520646981526020017f66666572656e740000000000000000000000000000000000000000000000000081525060400191505060405180910390fd5b816003819055503373ffffffffffffffffffffffffffffffffffffffff167f473e273824cdb20d698f6ab9016a329205f6f3d1cd27311093762eea782b46b1836040518082815260200191505060405180910390a260019050919050565b6000809054906101000a900473ffffffffffffffffffffffffffffffffffffffff1673ffffffffffffffffffffffffffffffffffffffff163373ffffffffffffffffffffffffffffffffffffffff16141515614fcc57600080fd5b600073ffffffffffffffffffffffffffffffffffffffff168173ffffffffffffffffffffffffffffffffffffffff161415151561500857600080fd5b8073ffffffffffffffffffffffffffffffffffffffff166000809054906101000a900473ffffffffffffffffffffffffffffffffffffffff1673ffffffffffffffffffffffffffffffffffffffff167f8be0079c531659141344cd1fd0a4f28419497f9722a3daafe3b4186f6b6457e060405160405180910390a3806000806101000a81548173ffffffffffffffffffffffffffffffffffffffff021916908373ffffffffffffffffffffffffffffffffffffffff16021790555050565b600660009054906101000a900473ffffffffffffffffffffffffffffffffffffffff1681565b600c602052816000526040600020602052806000526040600020600091509150505481565b6000808314156151245760009050615143565b818302905081838281151561513557fe5b0414151561513f57fe5b8090505b92915050565b6000818381151561515657fe5b04905092915050565b600082821115151561516d57fe5b818303905092915050565b6151cd81600960008573ffffffffffffffffffffffffffffffffffffffff1673ffffffffffffffffffffffffffffffffffffffff16815260200190815260200160002060000154615e6890919063ffffffff16565b600960008473ffffffffffffffffffffffffffffffffffffffff1673ffffffffffffffffffffffffffffffffffffffff168152602001908152602001600020600001819055505050565b61521f615e84565b6000806001028460001916141515156152a0576040517f08c379a00000000000000000000000000000000000000000000000000000000081526004018080602001828103825260128152602001807f64657669636520696420697320656d707479000000000000000000000000000081525060200191505060405180910390fd5b600760008560405180826000191660001916815260200191505060405180910390206000191660001916815260200190815260200160002090508060020160009054906101000a900460ff161515615360576040517f08c379a000000000000000000000000000000000000000000000000000000000815260040180806020018281038252600e8152602001807f6e6f74207265676973746572656400000000000000000000000000000000000081525060200191505060405180910390fd5b8060020160019054906101000a900460ff1615156153e6576040517f08c379a000000000000000000000000000000000000000000000000000000000815260040180806020018281038252600d8152602001807f6e6f74206163746976617465640000000000000000000000000000000000000081525060200191505060405180910390fd5b82600019168160030154600019161415151561546a576040517f08c379a000000000000000000000000000000000000000000000000000000000815260040180806020018281038252601f8152602001807f6e65772073636f7265206e6565647320746f20626520646966666572656e740081525060200191505060405180910390fd5b828160030181600019169055508060c060405190810160405290816000820154600019166000191681526020016001820154600019166000191681526020016002820160009054906101000a900460ff161515151581526020016002820160019054906101000a900460ff16151515158152602001600382015460001916600019168152602001600482015460001916600019168152505091505092915050565b600081111515615583576040517f08c379a00000000000000000000000000000000000000000000000000000000081526004018080602001828103825260138152602001807f5f616d6f756e742069732072657175697265640000000000000000000000000081525060200191505060405180910390fd5b6155d881600960008673ffffffffffffffffffffffffffffffffffffffff1673ffffffffffffffffffffffffffffffffffffffff1681526020019081526020016000206000015461515f90919063ffffffff16565b600960008573ffffffffffffffffffffffffffffffffffffffff1673ffffffffffffffffffffffffffffffffffffffff1681526020019081526020016000206000018190555061567081600a60008573ffffffffffffffffffffffffffffffffffffffff1673ffffffffffffffffffffffffffffffffffffffff16815260200190815260200160002054615e6890919063ffffffff16565b600a60008473ffffffffffffffffffffffffffffffffffffffff1673ffffffffffffffffffffffffffffffffffffffff16815260200190815260200160002081905550505050565b6156c0615e84565b600080836040518082600019166000191681526020019150506040518091039020915060076000836000191660001916815260200190815260200160002090508060020160009054906101000a900460ff161515615786576040517f08c379a000000000000000000000000000000000000000000000000000000000815260040180806020018281038252600e8152602001807f6e6f74207265676973746572656400000000000000000000000000000000000081525060200191505060405180910390fd5b8060020160019054906101000a900460ff1615151561580d576040517f08c379a00000000000000000000000000000000000000000000000000000000081526004018080602001828103825260118152602001807f616c72656164792061637469766174656400000000000000000000000000000081525060200191505060405180910390fd5b600060010281600001546000191614151515615891576040517f08c379a000000000000000000000000000000000000000000000000000000000815260040180806020018281038252601c8152602001807f6e6f206d616e7566616374757265722069642077617320666f756e640000000081525060200191505060405180910390fd5b60018160020160016101000a81548160ff0219169083151502179055508060c060405190810160405290816000820154600019166000191681526020016001820154600019166000191681526020016002820160009054906101000a900460ff161515151581526020016002820160019054906101000a900460ff16151515158152602001600382015460001916600019168152602001600482015460001916600019168152505092505050919050565b61594a615e84565b600080600073ffffffffffffffffffffffffffffffffffffffff168773ffffffffffffffffffffffffffffffffffffffff16141515156159f2576040517f08c379a00000000000000000000000000000000000000000000000000000000081526004018080602001828103825260188152602001807f6d616e756661637475726572206973207265717569726564000000000000000081525060200191505060405180910390fd5b6000600102866000191614151515615a72576040517f08c379a000000000000000000000000000000000000000000000000000000000815260040180806020018281038252601a8152602001807f646576696365206964206861736820697320726571756972656400000000000081525060200191505060405180910390fd5b6000600102856000191614151515615af2576040517f08c379a00000000000000000000000000000000000000000000000000000000081526004018080602001828103825260178152602001807f646576696365207479706520697320726571756972656400000000000000000081525060200191505060405180910390fd5b6000600102846000191614151515615b72576040517f08c379a000000000000000000000000000000000000000000000000000000000815260040180806020018281038252601d8152602001807f646576696365207075626c6963206b657920697320726571756972656400000081525060200191505060405180910390fd5b60076000876000191660001916815260200190815260200160002091508160020160009054906101000a900460ff16151515615c16576040517f08c379a000000000000000000000000000000000000000000000000000000000815260040180806020018281038252601c8152602001807f64657669636520697320616c726561647920726567697374657265640000000081525060200191505060405180910390fd5b8160020160019054906101000a900460ff16151515615c9d576040517f08c379a000000000000000000000000000000000000000000000000000000000815260040180806020018281038252601b8152602001807f64657669636520697320616c726561647920616374697661746564000000000081525060200191505060405180910390fd5b600860008873ffffffffffffffffffffffffffffffffffffffff1673ffffffffffffffffffffffffffffffffffffffff1681526020019081526020016000206001015490506000600102816000191614151515615d62576040517f08c379a000000000000000000000000000000000000000000000000000000000815260040180806020018281038252601a8152602001807f6d616e75666163747572657220696420697320756e6b6e6f776e00000000000081525060200191505060405180910390fd5b808260000181600019169055508482600101816000191690555060018260020160006101000a81548160ff02191690831515021790555060008260020160016101000a81548160ff0219169083151502179055506000826003018160001916905550838260040181600019169055508160c060405190810160405290816000820154600019166000191681526020016001820154600019166000191681526020016002820160009054906101000a900460ff161515151581526020016002820160019054906101000a900460ff16151515158152602001600382015460001916600019168152602001600482015460001916600019168152505092505050949350505050565b60008183019050828110151515615e7b57fe5b80905092915050565b60c060405190810160405280600080191681526020016000801916815260200160001515815260200160001515815260200160008019168152602001600080191681525090565b6080604051908101604052806000151581526020016000151581526020016000151581526020016000801916815250905600a165627a7a72305820c1b89c22e7b803c0f9e5372e5c74163229214e0fdf53f15b0c8216b0ed50d6790029",
  "source": "pragma solidity ^0.4.23; // solhint-disable-line\n\nimport \"zeppelin-solidity/contracts/lifecycle/Pausable.sol\";\nimport \"zeppelin-solidity/contracts/lifecycle/TokenDestructible.sol\";\n\n\n/// @title ERC-20 Token Standard\n/// @author Fabian Vogelsteller <fabian@ethereum.org>, Vitalik Buterin <vitalik.buterin@ethereum.org>\n/// @dev https://github.com/ethereum/EIPs/blob/master/EIPS/eip-20.md\ninterface ERC20Interface {\n    function decimals() public constant returns (uint8);\n    function totalSupply() public constant returns (uint);\n    function balanceOf(address tokenOwner) public constant returns (uint balance);\n    function allowance(address tokenOwner, address spender) public constant returns (uint remaining);\n    function transfer(address to, uint tokens) public returns (bool success);\n    function approve(address spender, uint tokens) public returns (bool success);\n    function transferFrom(address from, address to, uint tokens) public returns (bool success);\n\n    event Transfer(address indexed from, address indexed to, uint tokens);   // solhint-disable-line\n    event Approval(address indexed tokenOwner, address indexed spender, uint tokens);\n}\n\n\n/// @title Safe Math library\n/// @dev Math operations with safety checks that throw on error\n/// @dev https://github.com/OpenZeppelin/zeppelin-solidity/blob/master/contracts/math/SafeMath.sol\nlibrary SafeMath {\n    /// @dev Multiplies two numbers, throws on overflow.\n    function mul(uint256 a, uint256 b) internal pure returns (uint256 c) {\n        if (a == 0) {\n            return 0;\n        }\n        c = a * b;\n        assert(c / a == b);\n        return c;\n    }\n\n    /// @dev Integer division of two numbers, truncating the quotient.\n    function div(uint256 a, uint256 b) internal pure returns (uint256) {\n        // assert(b > 0); // Solidity automatically throws when dividing by 0\n        // uint256 c = a / b;\n        // assert(a == b * c + a % b); // There is no case in which this doesn't hold\n        return a / b;\n    }\n\n    /// @dev Subtracts two numbers, throws on overflow (i.e. if subtrahend is greater than minuend).\n    function sub(uint256 a, uint256 b) internal pure returns (uint256) {\n        assert(b <= a);\n        return a - b;\n    }\n\n    /// @dev Adds two numbers, throws on overflow.\n    function add(uint256 a, uint256 b) internal pure returns (uint256 c) {\n        c = a + b;\n        assert(c >= a);\n        return c;\n    }\n}\n\n\n/// @title Atonomi Smart Contract\n/// @author Atonomi\n/// @notice Governs the activation, registration, and reputation of devices on the Atonomi network\n/// @dev Ownable: Owner governs the access of Atonomi Admins, Fees, and Rewards on the network\n/// @dev Pausable: Gives ability for Owner to pull emergency stop to prevent actions on the network\n/// @dev TokenDestructible: Gives owner ability to kill the contract and extract funds to a new contract\ncontract Atonomi is Pausable, TokenDestructible {\n    using SafeMath for uint256;\n\n    ///\n    /// STATE VARIABLES\n    ///\n    /// @title Registration Fee\n    /// @notice Manufacturer pays token to register a device\n    /// @notice Manufacturer will recieve a share in any reputation updates for a device\n    uint256 public registrationFee;\n\n    /// @title Activiation Fee\n    /// @notice Manufacturer or Device Owner pays token to activate device\n    uint256 public activationFee;\n\n    /// @title Default Reputation Reward\n    /// @notice The default reputation reward set for new manufacturers\n    uint256 public defaultReputationReward;\n\n    /// @title Reputation Share for IRN Nodes\n    /// @notice percentage that the irn node or auditor receives (remaining goes to manufacturer)\n    uint256 public reputationIRNNodeShare;\n\n    /// @title Block threshold\n    /// @notice the number of blocks that need to pass between reputation updates to gain the full reward\n    uint256 public blockThreshold;\n\n    /// @title ATMI Token\n    /// @notice Standard ERC20 Token\n    /// @dev AMLToken source: https://github.com/TokenMarketNet/ico/blob/master/contracts/AMLToken.sol\n    ERC20Interface public token;\n\n    ///\n    /// STORAGE MAPPINGS \n    ///\n    /// @title Atonomi Devices registry\n    /// @notice Contains all devices participating in the Atonomi Network\n    /// @dev Key is a keccak256 hash of the device id\n    /// @dev Value is a struct that contains the device status and metadata\n    mapping (bytes32 => Device) public devices;\n\n    /// @title Atonomi Participant whitelist\n    /// @notice Contains all the network participants\n    /// @dev Atonomi Admins: Govern the access to manufacturers and IRN Nodes on the network\n    /// @dev IRN Nodes: Governs reputation score data of devices\n    /// @dev Manufacturers: Governs devices on the network\n    /// @dev Key is ethereum account of the participant\n    /// @dev Value is a struct that contains the role of the participant\n    mapping (address => NetworkMember) public network;\n\n    /// @title Token Pools\n    /// @notice each manufacturer will manage a pool of tokens for reputation rewards\n    /// @dev Key is ethereum account for pool owner\n    /// @dev Value is struct representing token pool attributes\n    /// @dev incoming tokens will come from registrations, activations, or public donations\n    /// @dev outgoing tokens will come from reputation rewards\n    mapping (address => TokenPool) public pools;\n\n    /// @title Reward Balances\n    /// @notice balances of rewards that are able to be claimed by participants\n    /// @dev Key is ethereum account of the owner of the tokens\n    /// @dev Value is tokens available for withdraw\n    mapping (address => uint256) public rewards;\n\n    /// @title Lookup by Manufacturer ID the wallet for reputation rewards\n    /// @dev Key is the manufacturer id\n    /// @dev Value is ethereum account to be rewarded\n    mapping (bytes32 => address) public manufacturerRewards;\n\n    /// @title Track last write by reputation author\n    /// @dev First key is the ethereum address of the reputation author\n    /// @dev Second key is the device id\n    /// @dev Value is the block number of the last time the author has submitted a score for the device\n    mapping (address => mapping (bytes32 => uint256)) public authorWrites;\n\n    ///\n    /// TYPES \n    ///\n    /// @title Atonomi Device\n    /// @notice Contains the device state on the Atonomi network\n    /// @dev manufacturerId is the manufacturer the device belongs to\n    /// @dev deviceType is the type of device categorized by the manufacturer\n    /// @dev registered is true when device is registered, otherwise false\n    /// @dev activated is true when device is activated, otherwise false\n    /// @dev reputationScore is official Atonomi Reputation score for the device\n    /// @dev devicePublicKey is public key used by IRN Nodes for validation\n    struct Device {\n        bytes32 manufacturerId;\n        bytes32 deviceType;\n        bool registered;\n        bool activated;\n        bytes32 reputationScore;\n        bytes32 devicePublicKey;\n    }\n\n    /// @title Token Pool\n    /// @notice Contains balance and reputation reward amounts for each token pool\n    /// @dev balance is total amount of tokens available in the pool\n    /// @dev rewardAmount is the total amount distributed between the manufacturer and reputation author\n    struct TokenPool {\n        uint256 balance;\n        uint256 rewardAmount;\n    }\n\n    /// @title Atonomi Network Participant\n    /// @notice Contains role information for a participant\n    /// @dev isIRNAdmin is true if participant is an IRN Admin, otherwise false\n    /// @dev isManufacturer is true if participant is a Manufacturer, otherwise false\n    /// @dev isIRNNode is true if participant is an IRN Node, otherwise false\n    /// @dev memberId is the manufacturer id, for all other participants this will be 0\n    struct NetworkMember {\n        bool isIRNAdmin;\n        bool isManufacturer;\n        bool isIRNNode;\n        bytes32 memberId;\n    }\n\n    ///\n    /// MODIFIERS\n    ///\n    /// @notice only manufacturers can call, otherwise throw\n    modifier onlyManufacturer() {\n        require(network[msg.sender].isManufacturer, \"must be a manufacturer\");\n        _;\n    }\n\n    /// @notice only IRNAdmins or Owner can call, otherwise throw\n    modifier onlyIRNorOwner() {\n        require(msg.sender == owner || network[msg.sender].isIRNAdmin, \"must be owner or an irn admin\");\n        _;\n    }\n\n    /// @notice only IRN Nodes can call, otherwise throw\n    modifier onlyIRNNode() {\n        require(network[msg.sender].isIRNNode, \"must be an irn node\");\n        _;\n    }\n\n    /// @notice Constructor sets the ERC Token contract and initial values for network fees\n    /// @param _token is the Atonomi Token contract address (must be ERC20)\n    /// @param _registrationFee initial registration fee on the network\n    /// @param _activationFee initial activation fee on the network\n    /// @param _defaultReputationReward initial reputation reward on the network\n    /// @param _reputationIRNNodeShare share that the reputation author recieves (remaining goes to manufacturer)\n    /// @param _blockThreshold the number of blocks that need to pass to receive the full reward\n    constructor (\n        address _token,\n        uint256 _registrationFee,\n        uint256 _activationFee,\n        uint256 _defaultReputationReward,\n        uint256 _reputationIRNNodeShare,\n        uint256 _blockThreshold) public {\n        require(_token != address(0), \"token address cannot be 0x0\");\n        require(_activationFee > 0, \"activation fee must be greater than 0\");\n        require(_registrationFee > 0, \"registration fee must be greater than 0\");\n        require(_defaultReputationReward > 0, \"default reputation reward must be greater than 0\");\n        require(_reputationIRNNodeShare > 0, \"new share must be larger than zero\");\n        require(_reputationIRNNodeShare <= 100, \"new share must be less than or equal to 100\");\n\n        token = ERC20Interface(_token);\n        activationFee = _activationFee;\n        registrationFee = _registrationFee;\n        defaultReputationReward = _defaultReputationReward;\n        reputationIRNNodeShare = _reputationIRNNodeShare;\n        blockThreshold = _blockThreshold;\n    }\n\n    ///\n    /// EVENTS \n    ///\n    /// @notice emitted on successful device registration\n    /// @param _sender manufacturer paying for registration\n    /// @param _fee registration fee paid by manufacturer\n    /// @param _deviceHashKey keccak256 hash of device id used as the key in devices mapping\n    /// @param _manufacturerId of the manufacturer the device belongs to\n    /// @param _deviceType is the type of device categorized by the manufacturer\n    event DeviceRegistered(\n        address indexed _sender,\n        uint256 _fee,\n        bytes32 indexed _deviceHashKey,\n        bytes32 indexed _manufacturerId,\n        bytes32 _deviceType\n    );\n\n    /// @notice emitted on successful device activation\n    /// @param _sender manufacturer or device owner paying for activation\n    /// @param _fee registration fee paid by manufacturer\n    /// @param _deviceId the real device id (only revealed after activation)\n    /// @param _manufacturerId of the manufacturer the device belongs to\n    /// @param _deviceType is the type of device categorized by the manufacturer\n    event DeviceActivated(\n        address indexed _sender,\n        uint256 _fee,\n        bytes32 indexed _deviceId,\n        bytes32 indexed _manufacturerId,\n        bytes32 _deviceType\n    );\n\n    /// @notice emitted on reputation change for a device\n    /// @param _deviceId device id of the target device\n    /// @param _deviceType is the type of device categorized by the manufacturer\n    /// @param _newScore updated reputation score\n    /// @param _irnNode IRN node submitting the new reputation\n    /// @param _irnReward tokens awarded to irn node\n    /// @param _manufacturerWallet manufacturer associated with the device is rewared a share of tokens\n    /// @param _manufacturerReward tokens awarded to contributor\n    event ReputationScoreUpdated(\n        bytes32 indexed _deviceId,\n        bytes32 _deviceType,\n        bytes32 _newScore,\n        address indexed _irnNode,\n        uint256 _irnReward,\n        address indexed _manufacturerWallet,\n        uint256 _manufacturerReward\n    );\n\n    /// @notice emitted on successful addition of network member address\n    /// @param _sender ethereum account of participant that made the change\n    /// @param _member address of added member\n    /// @param _memberId manufacturer id for manufacturer, otherwise 0x0\n    event NetworkMemberAdded(\n        address indexed _sender,\n        address indexed _member,\n        bytes32 indexed _memberId\n    );\n\n    /// @notice emitted on successful removal of network member address\n    /// @param _sender ethereum account of participant that made the change\n    /// @param _member address of removed member\n    /// @param _memberId manufacturer id for manufacturer, otherwise 0x0\n    event NetworkMemberRemoved(\n        address indexed _sender,\n        address indexed _member,\n        bytes32 indexed _memberId\n    );\n\n    /// @notice emitted everytime the registration fee changes\n    /// @param _sender ethereum account of participant that made the change\n    /// @param _amount new fee value in ATMI tokens\n    event RegistrationFeeUpdated(\n        address indexed _sender,\n        uint256 _amount\n    );\n\n    /// @notice emitted everytime the activation fee changes\n    /// @param _sender ethereum account of participant that made the change\n    /// @param _amount new fee value in ATMI tokens\n    event ActivationFeeUpdated(\n        address indexed _sender,\n        uint256 _amount\n    );\n\n    /// @notice emitted everytime the default reputation reward changes\n    /// @param _sender ethereum account of participant that made the change\n    /// @param _amount new fee value in ATMI tokens\n    event DefaultReputationRewardUpdated(\n        address indexed _sender,\n        uint256 _amount\n    );\n\n    /// @notice emitted everytime owner changes the contributation share for reputation authors\n    /// @param _sender ethereum account of participant that made the change\n    /// @param _percentage new percentage value\n    event ReputationIRNNodeShareUpdated(\n        address indexed _sender,\n        uint256 _percentage\n    );\n\n    /// @notice emitted everytime a manufacturer changes their wallet for rewards\n    /// @param _old ethereum account\n    /// @param _new ethereum account\n    /// @param _manufacturerId that the member belongs to\n    event ManufacturerRewardWalletChanged(\n        address indexed _old,\n        address indexed _new,\n        bytes32 indexed _manufacturerId\n    );\n\n    /// @notice emitted everytime a token pool reward amount changes\n    /// @param _sender ethereum account of the token pool owner\n    /// @param _newReward new reward value in ATMI tokens\n    event TokenPoolRewardUpdated(\n        address indexed _sender,\n        uint256 _newReward\n    );\n\n    /// @notice emitted everytime the block threshold is changed\n    /// @param _sender ethereum account who made the change\n    /// @param _newBlockThreshold new value for all token pools\n    event RewardBlockThresholdChanged(\n        address indexed _sender,\n        uint256 _newBlockThreshold\n    );\n\n    /// @notice emitted everytime someone donates tokens to a manufacturer\n    /// @param _sender ethereum account of the donater\n    /// @param _manufacturerId of the manufacturer\n    /// @param _manufacturer ethereum account\n    /// @param _amount of tokens deposited\n    event TokensDeposited(\n        address indexed _sender,\n        bytes32 indexed _manufacturerId,\n        address indexed _manufacturer,\n        uint256 _amount\n    );\n    \n    /// @notice emitted everytime a participant withdraws from token pool\n    /// @param _sender ethereum account of participant that made the change\n    /// @param _amount tokens withdrawn\n    event TokensWithdrawn(\n        address indexed _sender,\n        uint256 _amount\n    );\n\n    ///\n    /// FEE SETTERS\n    ///\n    /// @notice sets the global registration fee\n    /// @param _registrationFee new fee for registrations in ATMI tokens\n    /// @return true if successful, otherwise false\n    function setRegistrationFee(uint256 _registrationFee) public onlyOwner returns (bool) {\n        require(_registrationFee > 0, \"new registration fee must be greater than zero\");\n        require(_registrationFee != registrationFee, \"new registration fee must be different\");\n        registrationFee = _registrationFee;\n        emit RegistrationFeeUpdated(msg.sender, _registrationFee);\n        return true;\n    }\n\n    /// @notice sets the global activation fee\n    /// @param _activationFee new fee for activations in ATMI tokens\n    /// @return true if successful, otherwise false\n    function setActivationFee(uint256 _activationFee) public onlyOwner returns (bool) {\n        require(_activationFee > 0, \"new activation fee must be greater than zero\");\n        require(_activationFee != activationFee, \"new activation fee must be different\");\n        activationFee = _activationFee;\n        emit ActivationFeeUpdated(msg.sender, _activationFee);\n        return true;\n    }\n\n    /// @notice sets the default reputation reward for new manufacturers\n    /// @param _defaultReputationReward new reward for reputation score changes in ATMI tokens\n    /// @return true if successful, otherwise false\n    function setDefaultReputationReward(uint256 _defaultReputationReward) public onlyOwner returns (bool) {\n        require(_defaultReputationReward > 0, \"new reputation reward must be greater than zero\");\n        require(_defaultReputationReward != defaultReputationReward, \"new reputation reward must be different\");\n        defaultReputationReward = _defaultReputationReward;\n        emit DefaultReputationRewardUpdated(msg.sender, _defaultReputationReward);\n        return true;\n    }\n\n    /// @notice sets the global reputation reward share allotted to the authors and manufacturers\n    /// @param _reputationIRNNodeShare new percentage of the reputation reward allotted to author\n    /// @return true if successful, otherwise false\n    function setReputationIRNNodeShare(uint256 _reputationIRNNodeShare) public onlyOwner returns (bool) {\n        require(_reputationIRNNodeShare > 0, \"new share must be larger than zero\");\n        require(_reputationIRNNodeShare <= 100, \"new share must be less than or equal to 100\");\n        require(reputationIRNNodeShare != _reputationIRNNodeShare, \"new share must be different\");\n        reputationIRNNodeShare = _reputationIRNNodeShare;\n        emit ReputationIRNNodeShareUpdated(msg.sender, _reputationIRNNodeShare);\n        return true;\n    }\n\n    /// @notice sets the global block threshold for rewards\n    /// @param _newBlockThreshold new value for all token pools\n    /// @return true if successful, otherwise false\n    function setRewardBlockThreshold(uint _newBlockThreshold) public onlyOwner returns (bool) {\n        require(_newBlockThreshold != blockThreshold, \"must be different\");\n        blockThreshold = _newBlockThreshold;\n        emit RewardBlockThresholdChanged(msg.sender, _newBlockThreshold);\n        return true;\n    }\n\n    ///\n    /// DEVICE ONBOARDING\n    ///\n    /// @notice registers device on the Atonomi network\n    /// @param _deviceIdHash keccak256 hash of the device's id (needs to be hashed by caller)\n    /// @param _deviceType is the type of device categorized by the manufacturer\n    /// @dev devicePublicKey is public key used by IRN Nodes for validation\n    /// @return true if successful, otherwise false\n    /// @dev msg.sender is expected to be the manufacturer\n    /// @dev tokens will be deducted from the manufacturer and added to the token pool\n    /// @dev owner has ability to pause this operation\n    function registerDevice(\n        bytes32 _deviceIdHash,\n        bytes32 _deviceType,\n        bytes32 _devicePublicKey)\n        public onlyManufacturer whenNotPaused returns (bool)\n    {\n        Device memory d = _registerDevice(msg.sender, _deviceIdHash, _deviceType, _devicePublicKey);\n        emit DeviceRegistered(\n            msg.sender,\n            registrationFee,\n            _deviceIdHash,\n            d.manufacturerId,\n            _deviceType);\n        _depositTokens(msg.sender, registrationFee);\n        require(token.transferFrom(msg.sender, address(this), registrationFee), \"transferFrom failed\");\n        return true;\n    }\n\n    /// @notice Activates the device\n    /// @param _deviceId id of the real device id to be activated (not the hash of the device id)\n    /// @return true if successful, otherwise false\n    /// @dev if the hash doesnt match, the device is considered not registered and will throw\n    /// @dev anyone with the device id (in hand) is considered the device owner\n    /// @dev tokens will be deducted from the device owner and added to the token pool\n    /// @dev owner has ability to pause this operation\n    function activateDevice(bytes32 _deviceId) public whenNotPaused returns (bool) {\n        Device memory d = _activateDevice(_deviceId);\n        emit DeviceActivated(msg.sender, activationFee, _deviceId, d.manufacturerId, d.deviceType);\n        address manufacturer = manufacturerRewards[d.manufacturerId];\n        require(manufacturer != address(this), \"manufacturer is unknown\");\n        _depositTokens(manufacturer, activationFee);\n        require(token.transferFrom(msg.sender, address(this), activationFee), \"transferFrom failed\");\n        return true;\n    }\n\n    /// @notice Registers and immediately activates device, used by manufacturers to prepay activation\n    /// @param _deviceId id of the real device id to be activated (not the has of the device id)\n    /// @param _deviceType is the type of device categorized by the manufacturer\n    /// @return true if successful, otherwise false\n    /// @dev since the manufacturer is trusted, no need for the caller to hash the device id\n    /// @dev msg.sender is expected to be the manufacturer\n    /// @dev tokens will be deducted from the manufacturer and added to the token pool\n    /// @dev owner has ability to pause this operation\n    function registerAndActivateDevice(\n        bytes32 _deviceId,\n        bytes32 _deviceType,\n        bytes32 _devicePublicKey) \n        public onlyManufacturer whenNotPaused returns (bool)\n    {\n        bytes32 deviceIdHash = keccak256(_deviceId);\n        Device memory d = _registerDevice(msg.sender, deviceIdHash, _deviceType, _devicePublicKey);\n        bytes32 manufacturerId = d.manufacturerId;\n        emit DeviceRegistered(msg.sender, registrationFee, deviceIdHash, manufacturerId, _deviceType);\n\n        d = _activateDevice(_deviceId);\n        emit DeviceActivated(msg.sender, activationFee, _deviceId, manufacturerId, _deviceType);\n\n        uint256 fee = registrationFee.add(activationFee);\n        _depositTokens(msg.sender, fee);\n        require(token.transferFrom(msg.sender, address(this), fee), \"transferFrom failed\");\n        return true;\n    }\n\n    ///\n    /// REPUTATION MANAGEMENT\n    ///\n    /// @notice updates reputation for a device\n    /// @param _deviceId target device Id\n    /// @param _reputationScore updated reputation score computed by the author\n    /// @return true if successful, otherwise false\n    /// @dev msg.sender is expected to be the reputation author (either irn node or the reputation auditor)\n    /// @dev tokens will be deducted from the contract pool\n    /// @dev author and manufacturer will be rewarded a split of the tokens\n    /// @dev owner has ability to pause this operation\n    function updateReputationScore(\n        bytes32 _deviceId,\n        bytes32 _reputationScore)\n        public onlyIRNNode whenNotPaused returns (bool)\n    {\n        Device memory d = _updateReputationScore(_deviceId, _reputationScore);\n\n        address _manufacturerWallet = manufacturerRewards[d.manufacturerId];\n        require(_manufacturerWallet != address(0), \"_manufacturerWallet cannot be 0x0\");\n        require(_manufacturerWallet != msg.sender, \"manufacturers cannot collect the full reward\");\n\n        uint256 irnReward;\n        uint256 manufacturerReward;\n        (irnReward, manufacturerReward) = getReputationRewards(msg.sender, _manufacturerWallet, _deviceId);\n        _distributeRewards(_manufacturerWallet, msg.sender, irnReward);\n        _distributeRewards(_manufacturerWallet, _manufacturerWallet, manufacturerReward);\n        emit ReputationScoreUpdated(\n            _deviceId,\n            d.deviceType,\n            _reputationScore,\n            msg.sender,\n            irnReward,\n            _manufacturerWallet,\n            manufacturerReward);\n        authorWrites[msg.sender][_deviceId] = block.number;\n        return true;\n    }\n\n    /// @notice computes the portion of the reputation reward allotted to the manufacturer and author\n    /// @param author is the reputation node submitting the score\n    /// @param manufacturer is the token pool owner\n    /// @param deviceId of the device being updated\n    /// @return irnReward and manufacturerReward\n    function getReputationRewards(\n        address author,\n        address manufacturer,\n        bytes32 deviceId)\n        public view returns (uint256 irnReward, uint256 manufacturerReward)\n    {\n        uint256 lastWrite = authorWrites[author][deviceId];\n        uint256 blocks = 0;\n        if (lastWrite > 0) {\n            blocks = block.number.sub(lastWrite);\n        }\n        uint256 totalRewards = calculateReward(pools[manufacturer].rewardAmount, blocks);\n        irnReward = totalRewards.mul(reputationIRNNodeShare).div(100);\n        manufacturerReward = totalRewards.sub(irnReward);\n    }\n\n    /// @notice computes total reward based on the authors last submission\n    /// @param rewardAmount total amount available for reward\n    /// @param blocksSinceLastWrite number of blocks since last write\n    /// @return actual reward available\n    function calculateReward(uint256 rewardAmount, uint256 blocksSinceLastWrite) public view returns (uint256) {\n        uint256 totalReward = rewardAmount;\n        if (blocksSinceLastWrite > 0 && blocksSinceLastWrite < blockThreshold) {\n            uint256 multiplier = 10 ** uint256(token.decimals());\n            totalReward = rewardAmount.mul(blocksSinceLastWrite.mul(multiplier)).div(blockThreshold.mul(multiplier));\n        }\n        return totalReward;\n    }\n\n    ///\n    /// BULK OPERATIONS\n    ///\n    /// @notice registers multiple devices on the Atonomi network\n    /// @param _deviceIdHashes array of keccak256 hashed ID's of each device\n    /// @param _deviceTypes array of types of device categorized by the manufacturer\n    /// @param _devicePublicKeys array of public keys associated with the devices\n    /// @return true if successful, otherwise false\n    /// @dev msg.sender is expected to be the manufacturer\n    /// @dev tokens will be deducted from the manufacturer and added to the token pool\n    /// @dev owner has ability to pause this operation\n    function registerDevices(\n        bytes32[] _deviceIdHashes,\n        bytes32[] _deviceTypes,\n        bytes32[] _devicePublicKeys)\n        public onlyManufacturer whenNotPaused returns (bool)\n    {\n        require(_deviceIdHashes.length > 0, \"at least one device is required\");\n        require(\n            _deviceIdHashes.length == _deviceTypes.length,\n            \"device type array needs to be same size as devices\"\n        );\n        require(\n            _deviceIdHashes.length == _devicePublicKeys.length,\n            \"device public key array needs to be same size as devices\"\n        );\n\n        uint256 runningBalance = 0;\n        for (uint256 i = 0; i < _deviceIdHashes.length; i++) {\n            bytes32 deviceIdHash = _deviceIdHashes[i];\n            bytes32 deviceType = _deviceTypes[i];\n            bytes32 devicePublicKey = _devicePublicKeys[i];\n            Device memory d = _registerDevice(msg.sender, deviceIdHash, deviceType, devicePublicKey);\n            emit DeviceRegistered(msg.sender, registrationFee, deviceIdHash, d.manufacturerId, deviceType);\n\n            runningBalance = runningBalance.add(registrationFee);\n        }\n\n        _depositTokens(msg.sender, runningBalance);\n        require(token.transferFrom(msg.sender, address(this), runningBalance), \"transferFrom failed\");\n        return true;\n    }\n\n    ///\n    /// WHITELIST PARTICIPANT MANAGEMENT\n    ///\n    /// @notice add a member to the network\n    /// @param _member ethereum address of member to be added\n    /// @param _isIRNAdmin true if an irn admin, otherwise false\n    /// @param _isManufacturer true if an manufactuter, otherwise false\n    /// @param _memberId manufacturer id for manufacturers, otherwise 0x0\n    /// @return true if successful, otherwise false\n    /// @dev _memberId is only relevant for manufacturer, but is flexible to allow use for other purposes\n    /// @dev msg.sender is expected to be either owner or irn admin\n    function addNetworkMember(\n        address _member,\n        bool _isIRNAdmin,\n        bool _isManufacturer,\n        bool _isIRNNode,\n        bytes32 _memberId)\n        public onlyIRNorOwner returns(bool)\n    {\n        NetworkMember storage m = network[_member];\n        require(!m.isIRNAdmin, \"already an irn admin\");\n        require(!m.isManufacturer, \"already a manufacturer\");\n        require(!m.isIRNNode, \"already an irn node\");\n        require(m.memberId == 0, \"already assigned a member id\");\n\n        m.isIRNAdmin = _isIRNAdmin;\n        m.isManufacturer = _isManufacturer;\n        m.isIRNNode = _isIRNNode;\n        m.memberId = _memberId;\n\n        if (m.isManufacturer) {\n            // keep lookup for rewards in sync\n            require(manufacturerRewards[m.memberId] == address(0), \"manufacturer is already assigned\");\n            manufacturerRewards[m.memberId] = _member;\n\n            // set reputation reward if token pool doesnt exist\n            if (pools[_member].rewardAmount == 0) {\n                pools[_member].rewardAmount = defaultReputationReward;\n            }\n        }\n\n        emit NetworkMemberAdded(msg.sender, _member, _memberId);\n\n        return true;\n    }\n\n    /// @notice remove a member from the network\n    /// @param _member ethereum address of member to be removed\n    /// @return true if successful, otherwise false\n    /// @dev msg.sender is expected to be either owner or irn admin\n    function removeNetworkMember(address _member) public onlyIRNorOwner returns(bool) {\n        bytes32 memberId = network[_member].memberId;\n        if (network[_member].isManufacturer) {\n            // remove token pool if there is a zero balance\n            if (pools[_member].balance == 0) {\n                delete pools[_member];\n            }\n\n            // keep lookup with rewards in sync\n            delete manufacturerRewards[memberId];\n        }\n\n        delete network[_member];\n\n        emit NetworkMemberRemoved(msg.sender, _member, memberId);\n        return true;\n    }\n\n    //\n    // TOKEN POOL MANAGEMENT\n    //\n    /// @notice changes the ethereum wallet for a manufacturer used in reputation rewards\n    /// @param _new new ethereum account\n    /// @return true if successful, otherwise false\n    /// @dev msg.sender is expected to be original manufacturer account\n    function changeManufacturerWallet(address _new) public onlyManufacturer returns (bool) {\n        require(_new != address(0), \"new address cannot be 0x0\");\n\n        NetworkMember memory old = network[msg.sender];\n        require(old.isManufacturer && old.memberId != 0, \"must be a manufacturer\");\n\n        // copy permissions\n        require(!network[_new].isIRNAdmin, \"already an irn admin\");\n        require(!network[_new].isManufacturer, \"already a manufacturer\");\n        require(!network[_new].isIRNNode, \"already an irn node\");\n        require(network[_new].memberId == 0, \"memberId already exists\");\n        network[_new] = NetworkMember(\n            old.isIRNAdmin,\n            old.isManufacturer,\n            old.isIRNNode,\n            old.memberId\n        );\n\n        // transfer balance from old pool to the new pool\n        require(pools[_new].balance == 0 && pools[_new].rewardAmount == 0, \"new token pool already exists\");\n        pools[_new].balance = pools[msg.sender].balance;\n        pools[_new].rewardAmount = pools[msg.sender].rewardAmount;\n        delete pools[msg.sender];\n\n        // update reward mapping\n        manufacturerRewards[old.memberId] = _new;\n\n        // delete old member\n        delete network[msg.sender];\n\n        emit ManufacturerRewardWalletChanged(msg.sender, _new, old.memberId);\n        return true;\n    }\n\n    /// @notice allows a token pool owner to set a new reward amount\n    /// @param newReward new reputation reward amount\n    /// @return true if successful, otherwise false\n    /// @dev msg.sender expected to be manufacturer\n    function setTokenPoolReward(uint256 newReward) public onlyManufacturer returns (bool) {\n        require(newReward != 0, \"newReward is required\");\n\n        TokenPool storage p = pools[msg.sender];\n        require(p.rewardAmount != newReward, \"newReward should be different\");\n\n        p.rewardAmount = newReward;\n        emit TokenPoolRewardUpdated(msg.sender, newReward);\n        return true;\n    }\n\n    /// @notice anyone can donate tokens to a manufacturer\n    /// @param manufacturerId of the manufacturer to receive the tokens\n    /// @param amount of tokens to deposit\n    function depositTokens(bytes32 manufacturerId, uint256 amount) public returns (bool) {\n        require(manufacturerId != 0, \"manufacturerId is required\");\n        require(amount > 0, \"amount is required\");\n\n        address manufacturer = manufacturerRewards[manufacturerId];\n        require(manufacturer != address(0));\n\n        _depositTokens(manufacturer, amount);\n        emit TokensDeposited(msg.sender, manufacturerId, manufacturer, amount);\n\n        require(token.transferFrom(msg.sender, address(this), amount));\n        return true;\n    }\n\n    /// @notice allows participants in the Atonomi network to claim their rewards\n    /// @return true if successful, otherwise false\n    /// @dev owner has ability to pause this operation\n    function withdrawTokens() public whenNotPaused returns (bool) {\n        uint256 amount = rewards[msg.sender];\n        require(amount > 0, \"amount is zero\");\n\n        rewards[msg.sender] = 0;\n        emit TokensWithdrawn(msg.sender, amount);\n\n        require(token.transfer(msg.sender, amount), \"token transfer failed\");\n        return true;\n    }\n\n    ///\n    /// INTERNAL FUNCTIONS\n    ///\n    /// @dev track balances of any deposits going into a token pool\n    function _depositTokens(address _owner, uint256 _amount) internal {\n        pools[_owner].balance = pools[_owner].balance.add(_amount);\n    }\n\n    /// @dev track balances of any rewards going out of the token pool\n    function _distributeRewards(address _manufacturer, address _owner, uint256 _amount) internal {\n        require(_amount > 0, \"_amount is required\");\n        pools[_manufacturer].balance = pools[_manufacturer].balance.sub(_amount);\n        rewards[_owner] = rewards[_owner].add(_amount);\n    }\n\n    /// @dev ensure a device is validated for registration\n    /// @dev updates device registry\n    function _registerDevice(\n        address _manufacturer,\n        bytes32 _deviceIdHash,\n        bytes32 _deviceType,\n        bytes32 _devicePublicKey) internal returns (Device) {\n        require(_manufacturer != address(0), \"manufacturer is required\");\n        require(_deviceIdHash != 0, \"device id hash is required\");\n        require(_deviceType != 0, \"device type is required\");\n        require(_devicePublicKey != 0, \"device public key is required\");\n\n        Device storage d = devices[_deviceIdHash];\n        require(!d.registered, \"device is already registered\");\n        require(!d.activated, \"device is already activated\");\n\n        bytes32 manufacturerId = network[_manufacturer].memberId;\n        require(manufacturerId != 0, \"manufacturer id is unknown\");\n\n        d.manufacturerId = manufacturerId;\n        d.deviceType = _deviceType;\n        d.registered = true;\n        d.activated = false;\n        d.reputationScore = \"\";\n        d.devicePublicKey = _devicePublicKey;\n        return d;\n    }\n\n    /// @dev ensure a device is validated for activation\n    /// @dev updates device registry\n    function _activateDevice(bytes32 _deviceId) internal returns (Device) {\n        bytes32 deviceIdHash = keccak256(_deviceId);\n        Device storage d = devices[deviceIdHash];\n        require(d.registered, \"not registered\");\n        require(!d.activated, \"already activated\");\n        require(d.manufacturerId != 0, \"no manufacturer id was found\");\n\n        d.activated = true;\n        return d;\n    }\n\n    /// @dev ensure a device is validated for a new reputation score\n    /// @dev updates device registry\n    function _updateReputationScore(bytes32 _deviceId, bytes32 _reputationScore) internal returns (Device) {\n        require(_deviceId != 0, \"device id is empty\");\n\n        Device storage d = devices[keccak256(_deviceId)];\n        require(d.registered, \"not registered\");\n        require(d.activated, \"not activated\");\n        require(d.reputationScore != _reputationScore, \"new score needs to be different\");\n\n        d.reputationScore = _reputationScore;\n        return d;\n    }\n}\n",
  "sourcePath": "/Users/fil.capiral/dev/github.com/atonomi/smart-contracts/contracts/Atonomi.sol",
  "compiler": {
    "name": "solc",
    "version": "0.4.23+commit.124ca40d.Emscripten.clang"
  },
  "schemaVersion": "2.0.0",
  "updatedAt": "2018-05-24T13:32:23.281Z"
}